{
  "address": "0x58a113EEecc50D934b43158E601549becca89Ab5",
  "abi": [
    {
      "inputs": [],
      "stateMutability": "nonpayable",
      "type": "constructor"
    },
    {
      "inputs": [],
      "name": "get",
      "outputs": [
        {
          "internalType": "address",
          "name": "",
          "type": "address"
        }
      ],
      "stateMutability": "view",
      "type": "function"
    },
    {
      "inputs": [],
      "name": "owner",
      "outputs": [
        {
          "internalType": "address",
          "name": "",
          "type": "address"
        }
      ],
      "stateMutability": "view",
      "type": "function"
    },
    {
      "inputs": [
        {
          "internalType": "address",
          "name": "_value",
          "type": "address"
        }
      ],
      "name": "set",
      "outputs": [],
      "stateMutability": "nonpayable",
      "type": "function"
    }
  ],
  "transactionHash": "0x157f1b62ce5b69d013c9b1344e22f28ff99b52825d429b9b04ba9e0ff8f4e0ee",
  "args": [],
  "numDeployments": 1,
  "solcInputHash": "79c68ef25dfa8a62f958c6ed79051faf",
  "bytecode": "0x60a060405234801561001057600080fd5b5033608052608051610168610035600039600081816089015260b601526101686000f3fe608060405234801561001057600080fd5b50600436106100415760003560e01c80632801617e146100465780636d4ce63c1461005b5780638da5cb5b14610084575b600080fd5b610059610054366004610102565b6100ab565b005b6000546001600160a01b03165b6040516001600160a01b03909116815260200160405180910390f35b6100687f000000000000000000000000000000000000000000000000000000000000000081565b336001600160a01b037f000000000000000000000000000000000000000000000000000000000000000016146100e057600080fd5b600080546001600160a01b0319166001600160a01b0392909216919091179055565b60006020828403121561011457600080fd5b81356001600160a01b038116811461012b57600080fd5b939250505056fea2646970667358221220d939d0ff5cdbaeaacbcc1a32da58b8890d03f6a8013e554876215377216338ae64736f6c63430008170033",
  "devdoc": {
    "kind": "dev",
    "methods": {},
    "version": 1
  },
  "userdoc": {
    "kind": "user",
    "methods": {},
    "version": 1
  },
  "storageLayout": {
    "storage": [
      {
        "astId": 6768,
        "contract": "contracts/utility/AddressStore.sol:AddressStore",
        "label": "value",
        "offset": 0,
        "slot": "0",
        "type": "t_address"
      }
    ],
    "types": {
      "t_address": {
        "encoding": "inplace",
        "label": "address",
        "numberOfBytes": "20"
      }
    }
  }
}