{
  "address": "0x8585A611521717Ffe7d93cF264DbE936E484DBa0",
  "abi": [
    {
      "inputs": [
        {
          "internalType": "address",
          "name": "_owner",
          "type": "address"
        },
        {
          "internalType": "address",
          "name": "_rewardsDistribution",
          "type": "address"
        },
        {
          "internalType": "address",
          "name": "_rewardsToken",
          "type": "address"
        },
        {
          "internalType": "address",
          "name": "_stakingToken",
          "type": "address"
        }
      ],
      "stateMutability": "nonpayable",
      "type": "constructor"
    },
    {
      "anonymous": false,
      "inputs": [
        {
          "indexed": false,
          "internalType": "address",
          "name": "oldOwner",
          "type": "address"
        },
        {
          "indexed": false,
          "internalType": "address",
          "name": "newOwner",
          "type": "address"
        }
      ],
      "name": "OwnerChanged",
      "type": "event"
    },
    {
      "anonymous": false,
      "inputs": [
        {
          "indexed": false,
          "internalType": "address",
          "name": "newOwner",
          "type": "address"
        }
      ],
      "name": "OwnerNominated",
      "type": "event"
    },
    {
      "anonymous": false,
      "inputs": [
        {
          "indexed": false,
          "internalType": "address",
          "name": "token",
          "type": "address"
        },
        {
          "indexed": false,
          "internalType": "uint256",
          "name": "amount",
          "type": "uint256"
        }
      ],
      "name": "Recovered",
      "type": "event"
    },
    {
      "anonymous": false,
      "inputs": [
        {
          "indexed": false,
          "internalType": "uint256",
          "name": "reward",
          "type": "uint256"
        }
      ],
      "name": "RewardAdded",
      "type": "event"
    },
    {
      "anonymous": false,
      "inputs": [
        {
          "indexed": true,
          "internalType": "address",
          "name": "user",
          "type": "address"
        },
        {
          "indexed": false,
          "internalType": "uint256",
          "name": "reward",
          "type": "uint256"
        }
      ],
      "name": "RewardPaid",
      "type": "event"
    },
    {
      "anonymous": false,
      "inputs": [
        {
          "indexed": false,
          "internalType": "uint256",
          "name": "newDuration",
          "type": "uint256"
        }
      ],
      "name": "RewardsDurationUpdated",
      "type": "event"
    },
    {
      "anonymous": false,
      "inputs": [
        {
          "indexed": true,
          "internalType": "address",
          "name": "user",
          "type": "address"
        },
        {
          "indexed": false,
          "internalType": "uint256",
          "name": "amount",
          "type": "uint256"
        }
      ],
      "name": "Staked",
      "type": "event"
    },
    {
      "anonymous": false,
      "inputs": [
        {
          "indexed": true,
          "internalType": "address",
          "name": "user",
          "type": "address"
        },
        {
          "indexed": false,
          "internalType": "uint256",
          "name": "amount",
          "type": "uint256"
        }
      ],
      "name": "Withdrawn",
      "type": "event"
    },
    {
      "inputs": [],
      "name": "acceptOwnership",
      "outputs": [],
      "stateMutability": "nonpayable",
      "type": "function"
    },
    {
      "inputs": [
        {
          "internalType": "address",
          "name": "account",
          "type": "address"
        }
      ],
      "name": "balanceOf",
      "outputs": [
        {
          "internalType": "uint256",
          "name": "",
          "type": "uint256"
        }
      ],
      "stateMutability": "view",
      "type": "function"
    },
    {
      "inputs": [
        {
          "internalType": "address",
          "name": "account",
          "type": "address"
        }
      ],
      "name": "earned",
      "outputs": [
        {
          "internalType": "uint256",
          "name": "",
          "type": "uint256"
        }
      ],
      "stateMutability": "view",
      "type": "function"
    },
    {
      "inputs": [],
      "name": "exit",
      "outputs": [],
      "stateMutability": "nonpayable",
      "type": "function"
    },
    {
      "inputs": [],
      "name": "getReward",
      "outputs": [],
      "stateMutability": "nonpayable",
      "type": "function"
    },
    {
      "inputs": [],
      "name": "getRewardForDuration",
      "outputs": [
        {
          "internalType": "uint256",
          "name": "",
          "type": "uint256"
        }
      ],
      "stateMutability": "view",
      "type": "function"
    },
    {
      "inputs": [],
      "name": "lastTimeRewardApplicable",
      "outputs": [
        {
          "internalType": "uint256",
          "name": "",
          "type": "uint256"
        }
      ],
      "stateMutability": "view",
      "type": "function"
    },
    {
      "inputs": [],
      "name": "lastUpdateTime",
      "outputs": [
        {
          "internalType": "uint256",
          "name": "",
          "type": "uint256"
        }
      ],
      "stateMutability": "view",
      "type": "function"
    },
    {
      "inputs": [
        {
          "internalType": "address",
          "name": "_owner",
          "type": "address"
        }
      ],
      "name": "nominateNewOwner",
      "outputs": [],
      "stateMutability": "nonpayable",
      "type": "function"
    },
    {
      "inputs": [],
      "name": "nominatedOwner",
      "outputs": [
        {
          "internalType": "address",
          "name": "",
          "type": "address"
        }
      ],
      "stateMutability": "view",
      "type": "function"
    },
    {
      "inputs": [
        {
          "internalType": "uint256",
          "name": "reward",
          "type": "uint256"
        }
      ],
      "name": "notifyRewardAmount",
      "outputs": [],
      "stateMutability": "nonpayable",
      "type": "function"
    },
    {
      "inputs": [],
      "name": "owner",
      "outputs": [
        {
          "internalType": "address",
          "name": "",
          "type": "address"
        }
      ],
      "stateMutability": "view",
      "type": "function"
    },
    {
      "inputs": [],
      "name": "periodFinish",
      "outputs": [
        {
          "internalType": "uint256",
          "name": "",
          "type": "uint256"
        }
      ],
      "stateMutability": "view",
      "type": "function"
    },
    {
      "inputs": [
        {
          "internalType": "address",
          "name": "tokenAddress",
          "type": "address"
        },
        {
          "internalType": "uint256",
          "name": "tokenAmount",
          "type": "uint256"
        }
      ],
      "name": "recoverERC20",
      "outputs": [],
      "stateMutability": "nonpayable",
      "type": "function"
    },
    {
      "inputs": [],
      "name": "rewardPerToken",
      "outputs": [
        {
          "internalType": "uint256",
          "name": "",
          "type": "uint256"
        }
      ],
      "stateMutability": "view",
      "type": "function"
    },
    {
      "inputs": [],
      "name": "rewardPerTokenStored",
      "outputs": [
        {
          "internalType": "uint256",
          "name": "",
          "type": "uint256"
        }
      ],
      "stateMutability": "view",
      "type": "function"
    },
    {
      "inputs": [],
      "name": "rewardRate",
      "outputs": [
        {
          "internalType": "uint256",
          "name": "",
          "type": "uint256"
        }
      ],
      "stateMutability": "view",
      "type": "function"
    },
    {
      "inputs": [
        {
          "internalType": "address",
          "name": "",
          "type": "address"
        }
      ],
      "name": "rewards",
      "outputs": [
        {
          "internalType": "uint256",
          "name": "",
          "type": "uint256"
        }
      ],
      "stateMutability": "view",
      "type": "function"
    },
    {
      "inputs": [],
      "name": "rewardsDistribution",
      "outputs": [
        {
          "internalType": "address",
          "name": "",
          "type": "address"
        }
      ],
      "stateMutability": "view",
      "type": "function"
    },
    {
      "inputs": [],
      "name": "rewardsDuration",
      "outputs": [
        {
          "internalType": "uint256",
          "name": "",
          "type": "uint256"
        }
      ],
      "stateMutability": "view",
      "type": "function"
    },
    {
      "inputs": [],
      "name": "rewardsToken",
      "outputs": [
        {
          "internalType": "contract IERC20",
          "name": "",
          "type": "address"
        }
      ],
      "stateMutability": "view",
      "type": "function"
    },
    {
      "inputs": [
        {
          "internalType": "address",
          "name": "_rewardsDistribution",
          "type": "address"
        }
      ],
      "name": "setRewardsDistribution",
      "outputs": [],
      "stateMutability": "nonpayable",
      "type": "function"
    },
    {
      "inputs": [
        {
          "internalType": "uint256",
          "name": "_rewardsDuration",
          "type": "uint256"
        }
      ],
      "name": "setRewardsDuration",
      "outputs": [],
      "stateMutability": "nonpayable",
      "type": "function"
    },
    {
      "inputs": [
        {
          "internalType": "uint256",
          "name": "amount",
          "type": "uint256"
        }
      ],
      "name": "stake",
      "outputs": [],
      "stateMutability": "nonpayable",
      "type": "function"
    },
    {
      "inputs": [],
      "name": "stakingToken",
      "outputs": [
        {
          "internalType": "contract IERC20",
          "name": "",
          "type": "address"
        }
      ],
      "stateMutability": "view",
      "type": "function"
    },
    {
      "inputs": [],
      "name": "totalSupply",
      "outputs": [
        {
          "internalType": "uint256",
          "name": "",
          "type": "uint256"
        }
      ],
      "stateMutability": "view",
      "type": "function"
    },
    {
      "inputs": [
        {
          "internalType": "uint256",
          "name": "timestamp",
          "type": "uint256"
        }
      ],
      "name": "updatePeriodFinish",
      "outputs": [],
      "stateMutability": "nonpayable",
      "type": "function"
    },
    {
      "inputs": [
        {
          "internalType": "address",
          "name": "",
          "type": "address"
        }
      ],
      "name": "userRewardPerTokenPaid",
      "outputs": [
        {
          "internalType": "uint256",
          "name": "",
          "type": "uint256"
        }
      ],
      "stateMutability": "view",
      "type": "function"
    },
    {
      "inputs": [
        {
          "internalType": "uint256",
          "name": "amount",
          "type": "uint256"
        }
      ],
      "name": "withdraw",
      "outputs": [],
      "stateMutability": "nonpayable",
      "type": "function"
    }
  ],
  "transactionHash": "0x8f6b056b6953db08d7f33d2f62c6f7bab8327886b8b0dbd9405bf67f6f941a93",
  "args": [
    "0x2c2bc76B97BCe84A5a9c6e2835AB13306B964cf1",
    "0x2c2bc76B97BCe84A5a9c6e2835AB13306B964cf1",
    "0x7b97031b6297bc8e030B07Bd84Ce92FEa1B00c3e",
    "0x7b97031b6297bc8e030B07Bd84Ce92FEa1B00c3e"
  ],
  "numDeployments": 1,
  "solcInputHash": "5479ac230f5cd43273e5589c63d6a39c",
  "bytecode": "0x60806040526000600655600060075562278d006008553480156200002257600080fd5b50604051620015fc380380620015fc833981016040819052620000459162000162565b836001600160a01b038116620000a15760405162461bcd60e51b815260206004820152601960248201527f4f776e657220616464726573732063616e6e6f74206265203000000000000000604482015260640160405180910390fd5b600080546001600160a01b0319166001600160a01b03831690811782556040805192835260208301919091527fb532073b38c83145e3e5135377a08bf9aab55bc0fd7c1179cd4fb995d2a5159c910160405180910390a1506001600355600480546001600160a01b039384166001600160a01b03199182161790915560058054928416928216929092179091556002805493909216921691909117905550620001bf565b80516001600160a01b03811681146200015d57600080fd5b919050565b600080600080608085870312156200017957600080fd5b620001848562000145565b9350620001946020860162000145565b9250620001a46040860162000145565b9150620001b46060860162000145565b905092959194509250565b61142d80620001cf6000396000f3fe608060405234801561001057600080fd5b50600436106101ce5760003560e01c806372f702f311610104578063a694fc3a116100a2578063d1af0c7d11610071578063d1af0c7d146103ab578063df136d65146103be578063e9fad8ee146103c7578063ebe2b12b146103cf57600080fd5b8063a694fc3a14610374578063c8f33c9114610387578063cc1a378f14610390578063cd3daf9d146103a357600080fd5b806380faa57d116100de57806380faa57d146103265780638980f11f1461032e5780638b876347146103415780638da5cb5b1461036157600080fd5b806372f702f31461030257806379ba5097146103155780637b0a47ee1461031d57600080fd5b8063386a9525116101715780633fc6df6e1161014b5780633fc6df6e1461028857806353a47bb7146102b3578063556f6e6b146102c657806370a08231146102d957600080fd5b8063386a9525146102645780633c6b16ab1461026d5780633d18b9121461028057600080fd5b806318160ddd116101ad57806318160ddd1461022e57806319762143146102365780631c1f78eb146102495780632e1a7d4d1461025157600080fd5b80628cc262146101d35780630700037d146101f95780631627540c14610219575b600080fd5b6101e66101e136600461123f565b6103d8565b6040519081526020015b60405180910390f35b6101e661020736600461123f565b600c6020526000908152604090205481565b61022c61022736600461123f565b610456565b005b600d546101e6565b61022c61024436600461123f565b6104b3565b6101e66104dd565b61022c61025f36600461125a565b6104fb565b6101e660085481565b61022c61027b36600461125a565b61065f565b61022c6108b2565b60025461029b906001600160a01b031681565b6040516001600160a01b0390911681526020016101f0565b60015461029b906001600160a01b031681565b61022c6102d436600461125a565b6109ae565b6101e66102e736600461123f565b6001600160a01b03166000908152600e602052604090205490565b60055461029b906001600160a01b031681565b61022c610a18565b6101e660075481565b6101e6610b02565b61022c61033c366004611273565b610b10565b6101e661034f36600461123f565b600b6020526000908152604090205481565b60005461029b906001600160a01b031681565b61022c61038236600461125a565b610be0565b6101e660095481565b61022c61039e36600461125a565b610d2c565b6101e6610e06565b60045461029b906001600160a01b031681565b6101e6600a5481565b61022c610e51565b6101e660065481565b6001600160a01b0381166000908152600c6020908152604080832054600b909252822054610450919061044a90670de0b6b3a764000090610444906104259061041f610e06565b90610e74565b6001600160a01b0388166000908152600e602052604090205490610e87565b90610e93565b90610e9f565b92915050565b61045e610eab565b600180546001600160a01b0319166001600160a01b0383169081179091556040519081527f906a1c6bd7e3091ea86693dd029a831c19049ce77f1dce2ce0bab1cacbabce22906020015b60405180910390a150565b6104bb610eab565b600280546001600160a01b0319166001600160a01b0392909216919091179055565b60006104f6600854600754610e8790919063ffffffff16565b905090565b6002600354036105265760405162461bcd60e51b815260040161051d9061129d565b60405180910390fd5b600260035533610534610e06565b600a5561053f610b02565b6009556001600160a01b038116156105865761055a816103d8565b6001600160a01b0382166000908152600c6020908152604080832093909355600a54600b909152919020555b600082116105ca5760405162461bcd60e51b8152602060048201526011602482015270043616e6e6f74207769746864726177203607c1b604482015260640161051d565b600d546105d79083610e74565b600d55336000908152600e60205260409020546105f49083610e74565b336000818152600e6020526040902091909155600554610620916001600160a01b039091169084610f1d565b60405182815233907f7084f5476618d8e60b11ef0d7d3f06914655adb8793e28ff7f018d4c76d505d5906020015b60405180910390a250506001600355565b6002546001600160a01b031633146106cc5760405162461bcd60e51b815260206004820152602a60248201527f43616c6c6572206973206e6f742052657761726473446973747269627574696f6044820152691b8818dbdb9d1c9858dd60b21b606482015260840161051d565b60006106d6610e06565b600a556106e1610b02565b6009556001600160a01b03811615610728576106fc816103d8565b6001600160a01b0382166000908152600c6020908152604080832093909355600a54600b909152919020555b60065442106107475760085461073f908390610e93565b60075561078a565b6006546000906107579042610e74565b9050600061077060075483610e8790919063ffffffff16565b600854909150610784906104448684610e9f565b60075550505b600480546040516370a0823160e01b815230928101929092526000916001600160a01b03909116906370a0823190602401602060405180830381865afa1580156107d8573d6000803e3d6000fd5b505050506040513d601f19601f820116820180604052508101906107fc91906112d4565b905061081360085482610e9390919063ffffffff16565b60075411156108645760405162461bcd60e51b815260206004820152601860248201527f50726f76696465642072657761726420746f6f20686967680000000000000000604482015260640161051d565b4260098190556008546108779190610e9f565b6006556040518381527fde88a922e0d3b88b24e9623efeb464919c6bf9f66857a65e2bfcf2ce87a9433d9060200160405180910390a1505050565b6002600354036108d45760405162461bcd60e51b815260040161051d9061129d565b6002600355336108e2610e06565b600a556108ed610b02565b6009556001600160a01b0381161561093457610908816103d8565b6001600160a01b0382166000908152600c6020908152604080832093909355600a54600b909152919020555b336000908152600c602052604090205480156109a557336000818152600c6020526040812055600454610973916001600160a01b039091169083610f1d565b60405181815233907fe2403640ba68fed3a2f88b7557551d1993f84b99bb10ff833f0cf8db0c5e04869060200161064e565b50506001600355565b6109b6610eab565b60006109c0610e06565b600a556109cb610b02565b6009556001600160a01b03811615610a12576109e6816103d8565b6001600160a01b0382166000908152600c6020908152604080832093909355600a54600b909152919020555b50600655565b6001546001600160a01b03163314610a905760405162461bcd60e51b815260206004820152603560248201527f596f75206d757374206265206e6f6d696e61746564206265666f726520796f7560448201527402063616e20616363657074206f776e65727368697605c1b606482015260840161051d565b600054600154604080516001600160a01b0393841681529290911660208301527fb532073b38c83145e3e5135377a08bf9aab55bc0fd7c1179cd4fb995d2a5159c910160405180910390a160018054600080546001600160a01b03199081166001600160a01b03841617909155169055565b60006104f642600654610f85565b610b18610eab565b6005546001600160a01b0390811690831603610b805760405162461bcd60e51b815260206004820152602160248201527f43616e6e6f7420776974686472617720746865207374616b696e6720746f6b656044820152603760f91b606482015260840161051d565b600054610b9a906001600160a01b03848116911683610f1d565b604080516001600160a01b0384168152602081018390527f8c1256b8896378cd5044f80c202f9772b9d77dc85c8a6eb51967210b09bfaa28910160405180910390a15050565b600260035403610c025760405162461bcd60e51b815260040161051d9061129d565b600260035533610c10610e06565b600a55610c1b610b02565b6009556001600160a01b03811615610c6257610c36816103d8565b6001600160a01b0382166000908152600c6020908152604080832093909355600a54600b909152919020555b60008211610ca35760405162461bcd60e51b815260206004820152600e60248201526d043616e6e6f74207374616b6520360941b604482015260640161051d565b600d54610cb09083610e9f565b600d55336000908152600e6020526040902054610ccd9083610e9f565b336000818152600e6020526040902091909155600554610cfa916001600160a01b03909116903085610f9b565b60405182815233907f9e71bc8eea02a63969f509818f2dafb9254532904319f9dbda79b67bd34a5f3d9060200161064e565b610d34610eab565b6006544211610dd15760405162461bcd60e51b815260206004820152605860248201527f50726576696f7573207265776172647320706572696f64206d7573742062652060448201527f636f6d706c657465206265666f7265206368616e67696e67207468652064757260648201527f6174696f6e20666f7220746865206e657720706572696f640000000000000000608482015260a40161051d565b60088190556040518181527ffb46ca5a5e06d4540d6387b930a7c978bce0db5f449ec6b3f5d07c6e1d44f2d3906020016104a8565b6000600d54600003610e195750600a5490565b6104f6610e48600d54610444670de0b6b3a7640000610e42600754610e4260095461041f610b02565b90610e87565b600a5490610e9f565b336000908152600e6020526040902054610e6a906104fb565b610e726108b2565b565b6000610e808284611303565b9392505050565b6000610e808284611316565b6000610e80828461132d565b6000610e80828461134f565b6000546001600160a01b03163314610e725760405162461bcd60e51b815260206004820152602f60248201527f4f6e6c792074686520636f6e7472616374206f776e6572206d6179207065726660448201526e37b936903a3434b99030b1ba34b7b760891b606482015260840161051d565b6040516001600160a01b038316602482015260448101829052610f8090849063a9059cbb60e01b906064015b60408051601f198184030181529190526020810180516001600160e01b03166001600160e01b031990931692909217909152610fd9565b505050565b6000818310610f945781610e80565b5090919050565b6040516001600160a01b0380851660248301528316604482015260648101829052610fd39085906323b872dd60e01b90608401610f49565b50505050565b600061102e826040518060400160405280602081526020017f5361666545524332303a206c6f772d6c6576656c2063616c6c206661696c6564815250856001600160a01b03166110ab9092919063ffffffff16565b805190915015610f80578080602001905181019061104c9190611362565b610f805760405162461bcd60e51b815260206004820152602a60248201527f5361666545524332303a204552433230206f7065726174696f6e20646964206e6044820152691bdd081cdd58d8d9595960b21b606482015260840161051d565b60606110ba84846000856110c2565b949350505050565b6060824710156111235760405162461bcd60e51b815260206004820152602660248201527f416464726573733a20696e73756666696369656e742062616c616e636520666f6044820152651c8818d85b1b60d21b606482015260840161051d565b843b6111715760405162461bcd60e51b815260206004820152601d60248201527f416464726573733a2063616c6c20746f206e6f6e2d636f6e7472616374000000604482015260640161051d565b600080866001600160a01b0316858760405161118d91906113a8565b60006040518083038185875af1925050503d80600081146111ca576040519150601f19603f3d011682016040523d82523d6000602084013e6111cf565b606091505b50915091506111df8282866111ea565b979650505050505050565b606083156111f9575081610e80565b8251156112095782518084602001fd5b8160405162461bcd60e51b815260040161051d91906113c4565b80356001600160a01b038116811461123a57600080fd5b919050565b60006020828403121561125157600080fd5b610e8082611223565b60006020828403121561126c57600080fd5b5035919050565b6000806040838503121561128657600080fd5b61128f83611223565b946020939093013593505050565b6020808252601f908201527f5265656e7472616e637947756172643a207265656e7472616e742063616c6c00604082015260600190565b6000602082840312156112e657600080fd5b5051919050565b634e487b7160e01b600052601160045260246000fd5b81810381811115610450576104506112ed565b8082028115828204841417610450576104506112ed565b60008261134a57634e487b7160e01b600052601260045260246000fd5b500490565b80820180821115610450576104506112ed565b60006020828403121561137457600080fd5b81518015158114610e8057600080fd5b60005b8381101561139f578181015183820152602001611387565b50506000910152565b600082516113ba818460208701611384565b9190910192915050565b60208152600082518060208401526113e3816040850160208701611384565b601f01601f1916919091016040019291505056fea264697066735822122036876e13de1c654ed17e73cdcfb5ad39233e9498d33c70240e6fc5c5ec564a2764736f6c63430008170033",
  "devdoc": {
    "kind": "dev",
    "methods": {},
    "version": 1
  },
  "userdoc": {
    "kind": "user",
    "methods": {},
    "version": 1
  },
  "storageLayout": {
    "storage": [
      {
        "astId": 3,
        "contract": "contracts/farming/synthetix/contracts/StakingRewards30Days.sol:StakingRewards30Days",
        "label": "owner",
        "offset": 0,
        "slot": "0",
        "type": "t_address"
      },
      {
        "astId": 5,
        "contract": "contracts/farming/synthetix/contracts/StakingRewards30Days.sol:StakingRewards30Days",
        "label": "nominatedOwner",
        "offset": 0,
        "slot": "1",
        "type": "t_address"
      },
      {
        "astId": 114,
        "contract": "contracts/farming/synthetix/contracts/StakingRewards30Days.sol:StakingRewards30Days",
        "label": "rewardsDistribution",
        "offset": 0,
        "slot": "2",
        "type": "t_address"
      },
      {
        "astId": 1260,
        "contract": "contracts/farming/synthetix/contracts/StakingRewards30Days.sol:StakingRewards30Days",
        "label": "_status",
        "offset": 0,
        "slot": "3",
        "type": "t_uint256"
      },
      {
        "astId": 168,
        "contract": "contracts/farming/synthetix/contracts/StakingRewards30Days.sol:StakingRewards30Days",
        "label": "rewardsToken",
        "offset": 0,
        "slot": "4",
        "type": "t_contract(IERC20)1174"
      },
      {
        "astId": 171,
        "contract": "contracts/farming/synthetix/contracts/StakingRewards30Days.sol:StakingRewards30Days",
        "label": "stakingToken",
        "offset": 0,
        "slot": "5",
        "type": "t_contract(IERC20)1174"
      },
      {
        "astId": 174,
        "contract": "contracts/farming/synthetix/contracts/StakingRewards30Days.sol:StakingRewards30Days",
        "label": "periodFinish",
        "offset": 0,
        "slot": "6",
        "type": "t_uint256"
      },
      {
        "astId": 177,
        "contract": "contracts/farming/synthetix/contracts/StakingRewards30Days.sol:StakingRewards30Days",
        "label": "rewardRate",
        "offset": 0,
        "slot": "7",
        "type": "t_uint256"
      },
      {
        "astId": 180,
        "contract": "contracts/farming/synthetix/contracts/StakingRewards30Days.sol:StakingRewards30Days",
        "label": "rewardsDuration",
        "offset": 0,
        "slot": "8",
        "type": "t_uint256"
      },
      {
        "astId": 182,
        "contract": "contracts/farming/synthetix/contracts/StakingRewards30Days.sol:StakingRewards30Days",
        "label": "lastUpdateTime",
        "offset": 0,
        "slot": "9",
        "type": "t_uint256"
      },
      {
        "astId": 184,
        "contract": "contracts/farming/synthetix/contracts/StakingRewards30Days.sol:StakingRewards30Days",
        "label": "rewardPerTokenStored",
        "offset": 0,
        "slot": "10",
        "type": "t_uint256"
      },
      {
        "astId": 188,
        "contract": "contracts/farming/synthetix/contracts/StakingRewards30Days.sol:StakingRewards30Days",
        "label": "userRewardPerTokenPaid",
        "offset": 0,
        "slot": "11",
        "type": "t_mapping(t_address,t_uint256)"
      },
      {
        "astId": 192,
        "contract": "contracts/farming/synthetix/contracts/StakingRewards30Days.sol:StakingRewards30Days",
        "label": "rewards",
        "offset": 0,
        "slot": "12",
        "type": "t_mapping(t_address,t_uint256)"
      },
      {
        "astId": 194,
        "contract": "contracts/farming/synthetix/contracts/StakingRewards30Days.sol:StakingRewards30Days",
        "label": "_totalSupply",
        "offset": 0,
        "slot": "13",
        "type": "t_uint256"
      },
      {
        "astId": 198,
        "contract": "contracts/farming/synthetix/contracts/StakingRewards30Days.sol:StakingRewards30Days",
        "label": "_balances",
        "offset": 0,
        "slot": "14",
        "type": "t_mapping(t_address,t_uint256)"
      }
    ],
    "types": {
      "t_address": {
        "encoding": "inplace",
        "label": "address",
        "numberOfBytes": "20"
      },
      "t_contract(IERC20)1174": {
        "encoding": "inplace",
        "label": "contract IERC20",
        "numberOfBytes": "20"
      },
      "t_mapping(t_address,t_uint256)": {
        "encoding": "mapping",
        "key": "t_address",
        "label": "mapping(address => uint256)",
        "numberOfBytes": "32",
        "value": "t_uint256"
      },
      "t_uint256": {
        "encoding": "inplace",
        "label": "uint256",
        "numberOfBytes": "32"
      }
    }
  }
}