{
  "address": "0x799a23dA264A157Db6F9c02BE62F82CE8d602A45",
  "abi": [
    {
      "inputs": [
        {
          "internalType": "address",
          "name": "_owner",
          "type": "address"
        },
        {
          "internalType": "address",
          "name": "_rewardsDistribution",
          "type": "address"
        },
        {
          "internalType": "address",
          "name": "_rewardsToken",
          "type": "address"
        },
        {
          "internalType": "address",
          "name": "_stakingToken",
          "type": "address"
        },
        {
          "internalType": "uint256",
          "name": "_maxRewardRatePerToken",
          "type": "uint256"
        }
      ],
      "stateMutability": "nonpayable",
      "type": "constructor"
    },
    {
      "anonymous": false,
      "inputs": [
        {
          "indexed": false,
          "internalType": "uint256",
          "name": "newMaxRate",
          "type": "uint256"
        }
      ],
      "name": "MaxRewardRateUpdated",
      "type": "event"
    },
    {
      "anonymous": false,
      "inputs": [
        {
          "indexed": false,
          "internalType": "address",
          "name": "oldOwner",
          "type": "address"
        },
        {
          "indexed": false,
          "internalType": "address",
          "name": "newOwner",
          "type": "address"
        }
      ],
      "name": "OwnerChanged",
      "type": "event"
    },
    {
      "anonymous": false,
      "inputs": [
        {
          "indexed": false,
          "internalType": "address",
          "name": "newOwner",
          "type": "address"
        }
      ],
      "name": "OwnerNominated",
      "type": "event"
    },
    {
      "anonymous": false,
      "inputs": [
        {
          "indexed": false,
          "internalType": "address",
          "name": "token",
          "type": "address"
        },
        {
          "indexed": false,
          "internalType": "uint256",
          "name": "amount",
          "type": "uint256"
        }
      ],
      "name": "Recovered",
      "type": "event"
    },
    {
      "anonymous": false,
      "inputs": [
        {
          "indexed": false,
          "internalType": "uint256",
          "name": "reward",
          "type": "uint256"
        }
      ],
      "name": "RewardAdded",
      "type": "event"
    },
    {
      "anonymous": false,
      "inputs": [
        {
          "indexed": false,
          "internalType": "uint256",
          "name": "originalRate",
          "type": "uint256"
        },
        {
          "indexed": false,
          "internalType": "uint256",
          "name": "cappedRate",
          "type": "uint256"
        },
        {
          "indexed": false,
          "internalType": "uint256",
          "name": "withheldAmount",
          "type": "uint256"
        }
      ],
      "name": "RewardCapped",
      "type": "event"
    },
    {
      "anonymous": false,
      "inputs": [
        {
          "indexed": true,
          "internalType": "address",
          "name": "user",
          "type": "address"
        },
        {
          "indexed": false,
          "internalType": "uint256",
          "name": "reward",
          "type": "uint256"
        }
      ],
      "name": "RewardPaid",
      "type": "event"
    },
    {
      "anonymous": false,
      "inputs": [
        {
          "indexed": false,
          "internalType": "uint256",
          "name": "newDuration",
          "type": "uint256"
        }
      ],
      "name": "RewardsDurationUpdated",
      "type": "event"
    },
    {
      "anonymous": false,
      "inputs": [
        {
          "indexed": true,
          "internalType": "address",
          "name": "user",
          "type": "address"
        },
        {
          "indexed": false,
          "internalType": "uint256",
          "name": "amount",
          "type": "uint256"
        }
      ],
      "name": "Staked",
      "type": "event"
    },
    {
      "anonymous": false,
      "inputs": [
        {
          "indexed": true,
          "internalType": "address",
          "name": "user",
          "type": "address"
        },
        {
          "indexed": false,
          "internalType": "uint256",
          "name": "amount",
          "type": "uint256"
        }
      ],
      "name": "Withdrawn",
      "type": "event"
    },
    {
      "anonymous": false,
      "inputs": [
        {
          "indexed": false,
          "internalType": "uint256",
          "name": "amount",
          "type": "uint256"
        }
      ],
      "name": "WithheldRewardsWithdrawn",
      "type": "event"
    },
    {
      "inputs": [],
      "name": "acceptOwnership",
      "outputs": [],
      "stateMutability": "nonpayable",
      "type": "function"
    },
    {
      "inputs": [
        {
          "internalType": "address",
          "name": "account",
          "type": "address"
        }
      ],
      "name": "balanceOf",
      "outputs": [
        {
          "internalType": "uint256",
          "name": "",
          "type": "uint256"
        }
      ],
      "stateMutability": "view",
      "type": "function"
    },
    {
      "inputs": [
        {
          "internalType": "address",
          "name": "account",
          "type": "address"
        }
      ],
      "name": "earned",
      "outputs": [
        {
          "internalType": "uint256",
          "name": "",
          "type": "uint256"
        }
      ],
      "stateMutability": "view",
      "type": "function"
    },
    {
      "inputs": [],
      "name": "exit",
      "outputs": [],
      "stateMutability": "nonpayable",
      "type": "function"
    },
    {
      "inputs": [],
      "name": "getEffectiveRewardRate",
      "outputs": [
        {
          "internalType": "uint256",
          "name": "",
          "type": "uint256"
        }
      ],
      "stateMutability": "view",
      "type": "function"
    },
    {
      "inputs": [],
      "name": "getReward",
      "outputs": [],
      "stateMutability": "nonpayable",
      "type": "function"
    },
    {
      "inputs": [],
      "name": "getRewardForDuration",
      "outputs": [
        {
          "internalType": "uint256",
          "name": "",
          "type": "uint256"
        }
      ],
      "stateMutability": "view",
      "type": "function"
    },
    {
      "inputs": [],
      "name": "getWithheldRewardRate",
      "outputs": [
        {
          "internalType": "uint256",
          "name": "",
          "type": "uint256"
        }
      ],
      "stateMutability": "view",
      "type": "function"
    },
    {
      "inputs": [],
      "name": "lastTimeRewardApplicable",
      "outputs": [
        {
          "internalType": "uint256",
          "name": "",
          "type": "uint256"
        }
      ],
      "stateMutability": "view",
      "type": "function"
    },
    {
      "inputs": [],
      "name": "lastUpdateTime",
      "outputs": [
        {
          "internalType": "uint256",
          "name": "",
          "type": "uint256"
        }
      ],
      "stateMutability": "view",
      "type": "function"
    },
    {
      "inputs": [],
      "name": "maxRewardRatePerToken",
      "outputs": [
        {
          "internalType": "uint256",
          "name": "",
          "type": "uint256"
        }
      ],
      "stateMutability": "view",
      "type": "function"
    },
    {
      "inputs": [
        {
          "internalType": "address",
          "name": "_owner",
          "type": "address"
        }
      ],
      "name": "nominateNewOwner",
      "outputs": [],
      "stateMutability": "nonpayable",
      "type": "function"
    },
    {
      "inputs": [],
      "name": "nominatedOwner",
      "outputs": [
        {
          "internalType": "address",
          "name": "",
          "type": "address"
        }
      ],
      "stateMutability": "view",
      "type": "function"
    },
    {
      "inputs": [
        {
          "internalType": "uint256",
          "name": "reward",
          "type": "uint256"
        }
      ],
      "name": "notifyRewardAmount",
      "outputs": [],
      "stateMutability": "nonpayable",
      "type": "function"
    },
    {
      "inputs": [],
      "name": "owner",
      "outputs": [
        {
          "internalType": "address",
          "name": "",
          "type": "address"
        }
      ],
      "stateMutability": "view",
      "type": "function"
    },
    {
      "inputs": [],
      "name": "periodFinish",
      "outputs": [
        {
          "internalType": "uint256",
          "name": "",
          "type": "uint256"
        }
      ],
      "stateMutability": "view",
      "type": "function"
    },
    {
      "inputs": [
        {
          "internalType": "address",
          "name": "tokenAddress",
          "type": "address"
        },
        {
          "internalType": "uint256",
          "name": "tokenAmount",
          "type": "uint256"
        }
      ],
      "name": "recoverERC20",
      "outputs": [],
      "stateMutability": "nonpayable",
      "type": "function"
    },
    {
      "inputs": [],
      "name": "rewardPerToken",
      "outputs": [
        {
          "internalType": "uint256",
          "name": "",
          "type": "uint256"
        }
      ],
      "stateMutability": "view",
      "type": "function"
    },
    {
      "inputs": [],
      "name": "rewardPerTokenStored",
      "outputs": [
        {
          "internalType": "uint256",
          "name": "",
          "type": "uint256"
        }
      ],
      "stateMutability": "view",
      "type": "function"
    },
    {
      "inputs": [],
      "name": "rewardRate",
      "outputs": [
        {
          "internalType": "uint256",
          "name": "",
          "type": "uint256"
        }
      ],
      "stateMutability": "view",
      "type": "function"
    },
    {
      "inputs": [
        {
          "internalType": "address",
          "name": "",
          "type": "address"
        }
      ],
      "name": "rewards",
      "outputs": [
        {
          "internalType": "uint256",
          "name": "",
          "type": "uint256"
        }
      ],
      "stateMutability": "view",
      "type": "function"
    },
    {
      "inputs": [],
      "name": "rewardsDistribution",
      "outputs": [
        {
          "internalType": "address",
          "name": "",
          "type": "address"
        }
      ],
      "stateMutability": "view",
      "type": "function"
    },
    {
      "inputs": [],
      "name": "rewardsDuration",
      "outputs": [
        {
          "internalType": "uint256",
          "name": "",
          "type": "uint256"
        }
      ],
      "stateMutability": "view",
      "type": "function"
    },
    {
      "inputs": [],
      "name": "rewardsToken",
      "outputs": [
        {
          "internalType": "contract IERC20",
          "name": "",
          "type": "address"
        }
      ],
      "stateMutability": "view",
      "type": "function"
    },
    {
      "inputs": [
        {
          "internalType": "uint256",
          "name": "_maxRewardRatePerToken",
          "type": "uint256"
        }
      ],
      "name": "setMaxRewardRatePerToken",
      "outputs": [],
      "stateMutability": "nonpayable",
      "type": "function"
    },
    {
      "inputs": [
        {
          "internalType": "address",
          "name": "_rewardsDistribution",
          "type": "address"
        }
      ],
      "name": "setRewardsDistribution",
      "outputs": [],
      "stateMutability": "nonpayable",
      "type": "function"
    },
    {
      "inputs": [
        {
          "internalType": "uint256",
          "name": "_rewardsDuration",
          "type": "uint256"
        }
      ],
      "name": "setRewardsDuration",
      "outputs": [],
      "stateMutability": "nonpayable",
      "type": "function"
    },
    {
      "inputs": [
        {
          "internalType": "uint256",
          "name": "amount",
          "type": "uint256"
        }
      ],
      "name": "stake",
      "outputs": [],
      "stateMutability": "nonpayable",
      "type": "function"
    },
    {
      "inputs": [],
      "name": "stakingToken",
      "outputs": [
        {
          "internalType": "contract IERC20",
          "name": "",
          "type": "address"
        }
      ],
      "stateMutability": "view",
      "type": "function"
    },
    {
      "inputs": [],
      "name": "totalSupply",
      "outputs": [
        {
          "internalType": "uint256",
          "name": "",
          "type": "uint256"
        }
      ],
      "stateMutability": "view",
      "type": "function"
    },
    {
      "inputs": [
        {
          "internalType": "uint256",
          "name": "timestamp",
          "type": "uint256"
        }
      ],
      "name": "updatePeriodFinish",
      "outputs": [],
      "stateMutability": "nonpayable",
      "type": "function"
    },
    {
      "inputs": [
        {
          "internalType": "address",
          "name": "",
          "type": "address"
        }
      ],
      "name": "userRewardPerTokenPaid",
      "outputs": [
        {
          "internalType": "uint256",
          "name": "",
          "type": "uint256"
        }
      ],
      "stateMutability": "view",
      "type": "function"
    },
    {
      "inputs": [
        {
          "internalType": "uint256",
          "name": "amount",
          "type": "uint256"
        }
      ],
      "name": "withdraw",
      "outputs": [],
      "stateMutability": "nonpayable",
      "type": "function"
    },
    {
      "inputs": [],
      "name": "withdrawWithheldRewards",
      "outputs": [],
      "stateMutability": "nonpayable",
      "type": "function"
    },
    {
      "inputs": [],
      "name": "withheldRewards",
      "outputs": [
        {
          "internalType": "uint256",
          "name": "",
          "type": "uint256"
        }
      ],
      "stateMutability": "view",
      "type": "function"
    }
  ],
  "transactionHash": "0xb5a5d31f2613df8f51a6948db105a19b8a19420ab6385557c0cc0aba9535e005",
  "args": [
    "0x2c2bc76B97BCe84A5a9c6e2835AB13306B964cf1",
    "0x2c2bc76B97BCe84A5a9c6e2835AB13306B964cf1",
    "0x62B8B11039FcfE5aB0C56E502b1C372A3d2a9c7A",
    "0x62B8B11039FcfE5aB0C56E502b1C372A3d2a9c7A",
    "3170979198"
  ],
  "numDeployments": 1,
  "solcInputHash": "9f88b095b4bac3fe2ecf03d96d0bc54b",
  "bytecode": "0x60c06040526000600455600060055562093a806006553480156200002257600080fd5b5060405162001c5c38038062001c5c833981016040819052620000459162000151565b846001600160a01b038116620000a15760405162461bcd60e51b815260206004820152601960248201527f4f776e657220616464726573732063616e6e6f74206265203000000000000000604482015260640160405180910390fd5b600080546001600160a01b0319166001600160a01b03831690811782556040805192835260208301919091527fb532073b38c83145e3e5135377a08bf9aab55bc0fd7c1179cd4fb995d2a5159c910160405180910390a15060016003556001600160a01b0392831660a052908216608052600280546001600160a01b03191693909216929092179055600b5550620001b8565b80516001600160a01b03811681146200014c57600080fd5b919050565b600080600080600060a086880312156200016a57600080fd5b620001758662000134565b9450620001856020870162000134565b9350620001956040870162000134565b9250620001a56060870162000134565b9150608086015190509295509295909350565b60805160a051611a54620002086000396000818161043b0152818161059001528181610a750152610ce50152600081816103750152818161087101528181610f99015261122e0152611a546000f3fe608060405234801561001057600080fd5b50600436106102105760003560e01c806370a0823111610125578063c8f33c91116100ad578063d1af0c7d1161007c578063d1af0c7d14610436578063df136d651461045d578063e9fad8ee14610466578063ebe2b12b1461046e578063f94362ef1461047757600080fd5b8063c8f33c9114610409578063cc1a378f14610412578063cd3daf9d14610425578063ceb3bb821461042d57600080fd5b806380faa57d116100f457806380faa57d146103a85780638980f11f146103b05780638b876347146103c35780638da5cb5b146103e3578063a694fc3a146103f657600080fd5b806370a082311461034757806372f702f31461037057806379ba5097146103975780637b0a47ee1461039f57600080fd5b80632e1a7d4d116101a85780633d18b912116101775780633d18b912146102db5780633fc6df6e146102e357806353a47bb71461030e578063556f6e6b146103215780636a03a9e21461033457600080fd5b80632e1a7d4d146102a3578063313c27a9146102b6578063386a9525146102bf5780633c6b16ab146102c857600080fd5b806318160ddd116101e457806318160ddd1461027857806319762143146102805780631c1f78eb146102935780631f30b3171461029b57600080fd5b80628cc262146102155780630700037d1461023b5780630acccd991461025b5780631627540c14610265575b600080fd5b6102286102233660046117fc565b61047f565b6040519081526020015b60405180910390f35b6102286102493660046117fc565b600a6020526000908152604090205481565b6102636104fc565b005b6102636102733660046117fc565b6105f5565b600d54610228565b61026361028e3660046117fc565b61064b565b610228610675565b610228610691565b6102636102b1366004611817565b6106c2565b610228600c5481565b61022860065481565b6102636102d6366004611817565b6108d8565b610263610b97565b6002546102f6906001600160a01b031681565b6040516001600160a01b039091168152602001610232565b6001546102f6906001600160a01b031681565b61026361032f366004611817565b610d50565b610263610342366004611817565b610e5a565b6102286103553660046117fc565b6001600160a01b03166000908152600e602052604090205490565b6102f67f000000000000000000000000000000000000000000000000000000000000000081565b610263610e97565b61022860055481565b610228610f81565b6102636103be366004611830565b610f8f565b6102286103d13660046117fc565b60096020526000908152604090205481565b6000546102f6906001600160a01b031681565b610263610404366004611817565b611082565b61022860075481565b610263610420366004611817565b611288565b610228611387565b610228600b5481565b6102f67f000000000000000000000000000000000000000000000000000000000000000081565b61022860085481565b6102636113f1565b61022860045481565b610228611414565b6001600160a01b0381166000908152600a60209081526040808320546009909252822054670de0b6b3a7640000906104b5611387565b6104bf9190611870565b6001600160a01b0385166000908152600e60205260409020546104e29190611883565b6104ec919061189a565b6104f691906118bc565b92915050565b6002546001600160a01b0316331461052f5760405162461bcd60e51b8152600401610526906118cf565b60405180910390fd5b600c548061057f5760405162461bcd60e51b815260206004820152601760248201527f7769746868656c6452657761726473206973207a65726f0000000000000000006044820152606401610526565b6002546105b9906001600160a01b037f00000000000000000000000000000000000000000000000000000000000000008116911683611466565b6000600c556040518181527f18c1dc2c0df83009a3a19b2f849d9868d7ec0059f77e116f956b73ec987b57a1906020015b60405180910390a150565b6105fd6114ce565b600180546001600160a01b0319166001600160a01b0383169081179091556040519081527f906a1c6bd7e3091ea86693dd029a831c19049ce77f1dce2ce0bab1cacbabce22906020016105ea565b6106536114ce565b600280546001600160a01b0319166001600160a01b0392909216919091179055565b6000600654610682611414565b61068c9190611883565b905090565b60008061069c611414565b905080600554116106ae5760006106bc565b806005546106bc9190611870565b91505090565b6002600354036106e45760405162461bcd60e51b815260040161052690611919565b60026003553360006106f4610f81565b90506106fe611387565b600855600d541561079b576000610713611414565b90508060055411156107995760006007548361072f9190611870565b9050600081836005546107429190611870565b61074c9190611883565b905080600c600082825461076091906118bc565b9091555050600554604080519182526020820185905281018290526000805160206119ff8339815191529060600160405180910390a150505b505b60078190556001600160a01b038216156107e4576107b88261047f565b6001600160a01b0383166000908152600a60209081526040808320939093556008546009909152919020555b600083116108285760405162461bcd60e51b8152602060048201526011602482015270043616e6e6f74207769746864726177203607c1b6044820152606401610526565b82600d600082825461083a9190611870565b9091555050336000908152600e60205260408120805485929061085e908490611870565b9091555061089890506001600160a01b037f0000000000000000000000000000000000000000000000000000000000000000163385611466565b60405183815233907f7084f5476618d8e60b11ef0d7d3f06914655adb8793e28ff7f018d4c76d505d5906020015b60405180910390a25050600160035550565b6002546001600160a01b031633146109025760405162461bcd60e51b8152600401610526906118cf565b60008061090d610f81565b9050610917611387565b600855600d54156109b457600061092c611414565b90508060055411156109b2576000600754836109489190611870565b90506000818360055461095b9190611870565b6109659190611883565b905080600c600082825461097991906118bc565b9091555050600554604080519182526020820185905281018290526000805160206119ff8339815191529060600160405180910390a150505b505b60078190556001600160a01b038216156109fd576109d18261047f565b6001600160a01b0383166000908152600a60209081526040808320939093556008546009909152919020555b6004544210610a1b57600654610a13908461189a565b600555610a5d565b600042600454610a2b9190611870565b9050600060055482610a3d9190611883565b600654909150610a4d82876118bc565b610a57919061189a565b60055550505b6040516370a0823160e01b81523060048201526000907f00000000000000000000000000000000000000000000000000000000000000006001600160a01b0316906370a0823190602401602060405180830381865afa158015610ac4573d6000803e3d6000fd5b505050506040513d601f19601f82011682018060405250810190610ae89190611950565b905060065481610af8919061189a565b6005541115610b495760405162461bcd60e51b815260206004820152601860248201527f50726f76696465642072657761726420746f6f206869676800000000000000006044820152606401610526565b426007819055600654610b5b916118bc565b6004556040518481527fde88a922e0d3b88b24e9623efeb464919c6bf9f66857a65e2bfcf2ce87a9433d9060200160405180910390a150505050565b600260035403610bb95760405162461bcd60e51b815260040161052690611919565b6002600355336000610bc9610f81565b9050610bd3611387565b600855600d5415610c70576000610be8611414565b9050806005541115610c6e57600060075483610c049190611870565b905060008183600554610c179190611870565b610c219190611883565b905080600c6000828254610c3591906118bc565b9091555050600554604080519182526020820185905281018290526000805160206119ff8339815191529060600160405180910390a150505b505b60078190556001600160a01b03821615610cb957610c8d8261047f565b6001600160a01b0383166000908152600a60209081526040808320939093556008546009909152919020555b336000908152600a60205260409020548015610d4657336000818152600a6020526040812055610d14907f00000000000000000000000000000000000000000000000000000000000000006001600160a01b03169083611466565b60405181815233907fe2403640ba68fed3a2f88b7557551d1993f84b99bb10ff833f0cf8db0c5e0486906020016108c6565b5050600160035550565b610d586114ce565b600080610d63610f81565b9050610d6d611387565b600855600d5415610e0a576000610d82611414565b9050806005541115610e0857600060075483610d9e9190611870565b905060008183600554610db19190611870565b610dbb9190611883565b905080600c6000828254610dcf91906118bc565b9091555050600554604080519182526020820185905281018290526000805160206119ff8339815191529060600160405180910390a150505b505b60078190556001600160a01b03821615610e5357610e278261047f565b6001600160a01b0383166000908152600a60209081526040808320939093556008546009909152919020555b5050600455565b610e626114ce565b600b8190556040518181527f9041b23d05af9bceefc73becffefd1887907ad55c3d6c6655230b37ef87dbb07906020016105ea565b6001546001600160a01b03163314610f0f5760405162461bcd60e51b815260206004820152603560248201527f596f75206d757374206265206e6f6d696e61746564206265666f726520796f7560448201527402063616e20616363657074206f776e65727368697605c1b6064820152608401610526565b600054600154604080516001600160a01b0393841681529290911660208301527fb532073b38c83145e3e5135377a08bf9aab55bc0fd7c1179cd4fb995d2a5159c910160405180910390a160018054600080546001600160a01b03199081166001600160a01b03841617909155169055565b600061068c42600454611540565b610f976114ce565b7f00000000000000000000000000000000000000000000000000000000000000006001600160a01b0316826001600160a01b0316036110225760405162461bcd60e51b815260206004820152602160248201527f43616e6e6f7420776974686472617720746865207374616b696e6720746f6b656044820152603760f91b6064820152608401610526565b60005461103c906001600160a01b03848116911683611466565b604080516001600160a01b0384168152602081018390527f8c1256b8896378cd5044f80c202f9772b9d77dc85c8a6eb51967210b09bfaa28910160405180910390a15050565b6002600354036110a45760405162461bcd60e51b815260040161052690611919565b60026003553360006110b4610f81565b90506110be611387565b600855600d541561115b5760006110d3611414565b9050806005541115611159576000600754836110ef9190611870565b9050600081836005546111029190611870565b61110c9190611883565b905080600c600082825461112091906118bc565b9091555050600554604080519182526020820185905281018290526000805160206119ff8339815191529060600160405180910390a150505b505b60078190556001600160a01b038216156111a4576111788261047f565b6001600160a01b0383166000908152600a60209081526040808320939093556008546009909152919020555b600083116111e55760405162461bcd60e51b815260206004820152600e60248201526d043616e6e6f74207374616b6520360941b6044820152606401610526565b82600d60008282546111f791906118bc565b9091555050336000908152600e60205260408120805485929061121b9084906118bc565b9091555061125690506001600160a01b037f000000000000000000000000000000000000000000000000000000000000000016333086611558565b60405183815233907f9e71bc8eea02a63969f509818f2dafb9254532904319f9dbda79b67bd34a5f3d906020016108c6565b6112906114ce565b600081116112f05760405162461bcd60e51b815260206004820152602760248201527f52657761726473206475726174696f6e206d75737420626520677265617465726044820152660207468616e20360cc1b6064820152608401610526565b60045442116113525760405162461bcd60e51b815260206004820152602860248201527f50726576696f7573207265776172647320706572696f64206d75737420626520604482015267636f6d706c65746560c01b6064820152608401610526565b60068190556040518181527ffb46ca5a5e06d4540d6387b930a7c978bce0db5f449ec6b3f5d07c6e1d44f2d3906020016105ea565b6000600d5460000361139a575060085490565b60006113a4611414565b9050600d546007546113b4610f81565b6113be9190611870565b6113c89083611883565b6113da90670de0b6b3a7640000611883565b6113e4919061189a565b6008546106bc91906118bc565b336000908152600e602052604090205461140a906106c2565b611412610b97565b565b6000600d54600014806114275750600b54155b15611433575060055490565b6000670de0b6b3a7640000600d54600b5461144e9190611883565b611458919061189a565b90506106bc60055482611540565b6040516001600160a01b0383166024820152604481018290526114c990849063a9059cbb60e01b906064015b60408051601f198184030181529190526020810180516001600160e01b03166001600160e01b031990931692909217909152611596565b505050565b6000546001600160a01b031633146114125760405162461bcd60e51b815260206004820152602f60248201527f4f6e6c792074686520636f6e7472616374206f776e6572206d6179207065726660448201526e37b936903a3434b99030b1ba34b7b760891b6064820152608401610526565b600081831061154f5781611551565b825b9392505050565b6040516001600160a01b03808516602483015283166044820152606481018290526115909085906323b872dd60e01b90608401611492565b50505050565b60006115eb826040518060400160405280602081526020017f5361666545524332303a206c6f772d6c6576656c2063616c6c206661696c6564815250856001600160a01b03166116689092919063ffffffff16565b8051909150156114c957808060200190518101906116099190611969565b6114c95760405162461bcd60e51b815260206004820152602a60248201527f5361666545524332303a204552433230206f7065726174696f6e20646964206e6044820152691bdd081cdd58d8d9595960b21b6064820152608401610526565b6060611677848460008561167f565b949350505050565b6060824710156116e05760405162461bcd60e51b815260206004820152602660248201527f416464726573733a20696e73756666696369656e742062616c616e636520666f6044820152651c8818d85b1b60d21b6064820152608401610526565b843b61172e5760405162461bcd60e51b815260206004820152601d60248201527f416464726573733a2063616c6c20746f206e6f6e2d636f6e74726163740000006044820152606401610526565b600080866001600160a01b0316858760405161174a91906119af565b60006040518083038185875af1925050503d8060008114611787576040519150601f19603f3d011682016040523d82523d6000602084013e61178c565b606091505b509150915061179c8282866117a7565b979650505050505050565b606083156117b6575081611551565b8251156117c65782518084602001fd5b8160405162461bcd60e51b815260040161052691906119cb565b80356001600160a01b03811681146117f757600080fd5b919050565b60006020828403121561180e57600080fd5b611551826117e0565b60006020828403121561182957600080fd5b5035919050565b6000806040838503121561184357600080fd5b61184c836117e0565b946020939093013593505050565b634e487b7160e01b600052601160045260246000fd5b818103818111156104f6576104f661185a565b80820281158282048414176104f6576104f661185a565b6000826118b757634e487b7160e01b600052601260045260246000fd5b500490565b808201808211156104f6576104f661185a565b6020808252602a908201527f43616c6c6572206973206e6f742052657761726473446973747269627574696f6040820152691b8818dbdb9d1c9858dd60b21b606082015260800190565b6020808252601f908201527f5265656e7472616e637947756172643a207265656e7472616e742063616c6c00604082015260600190565b60006020828403121561196257600080fd5b5051919050565b60006020828403121561197b57600080fd5b8151801515811461155157600080fd5b60005b838110156119a657818101518382015260200161198e565b50506000910152565b600082516119c181846020870161198b565b9190910192915050565b60208152600082518060208401526119ea81604085016020870161198b565b601f01601f1916919091016040019291505056fedac2580b2fb715cfdb3c1f2851d34eacb3631c873912801344f0aa8f8e37a481a264697066735822122046eb06090cd1422acb1efa0dcf69f5ec0cc6ce1e9f26eaacb1e01e247668e59a64736f6c63430008170033",
  "devdoc": {
    "kind": "dev",
    "methods": {},
    "version": 1
  },
  "userdoc": {
    "kind": "user",
    "methods": {},
    "version": 1
  },
  "storageLayout": {
    "storage": [
      {
        "astId": 3,
        "contract": "contracts/farming/synthetix/contracts/StakingRewardsCapped.sol:StakingRewardsCapped",
        "label": "owner",
        "offset": 0,
        "slot": "0",
        "type": "t_address"
      },
      {
        "astId": 5,
        "contract": "contracts/farming/synthetix/contracts/StakingRewardsCapped.sol:StakingRewardsCapped",
        "label": "nominatedOwner",
        "offset": 0,
        "slot": "1",
        "type": "t_address"
      },
      {
        "astId": 114,
        "contract": "contracts/farming/synthetix/contracts/StakingRewardsCapped.sol:StakingRewardsCapped",
        "label": "rewardsDistribution",
        "offset": 0,
        "slot": "2",
        "type": "t_address"
      },
      {
        "astId": 1411,
        "contract": "contracts/farming/synthetix/contracts/StakingRewardsCapped.sol:StakingRewardsCapped",
        "label": "_status",
        "offset": 0,
        "slot": "3",
        "type": "t_uint256"
      },
      {
        "astId": 170,
        "contract": "contracts/farming/synthetix/contracts/StakingRewardsCapped.sol:StakingRewardsCapped",
        "label": "periodFinish",
        "offset": 0,
        "slot": "4",
        "type": "t_uint256"
      },
      {
        "astId": 173,
        "contract": "contracts/farming/synthetix/contracts/StakingRewardsCapped.sol:StakingRewardsCapped",
        "label": "rewardRate",
        "offset": 0,
        "slot": "5",
        "type": "t_uint256"
      },
      {
        "astId": 176,
        "contract": "contracts/farming/synthetix/contracts/StakingRewardsCapped.sol:StakingRewardsCapped",
        "label": "rewardsDuration",
        "offset": 0,
        "slot": "6",
        "type": "t_uint256"
      },
      {
        "astId": 178,
        "contract": "contracts/farming/synthetix/contracts/StakingRewardsCapped.sol:StakingRewardsCapped",
        "label": "lastUpdateTime",
        "offset": 0,
        "slot": "7",
        "type": "t_uint256"
      },
      {
        "astId": 180,
        "contract": "contracts/farming/synthetix/contracts/StakingRewardsCapped.sol:StakingRewardsCapped",
        "label": "rewardPerTokenStored",
        "offset": 0,
        "slot": "8",
        "type": "t_uint256"
      },
      {
        "astId": 184,
        "contract": "contracts/farming/synthetix/contracts/StakingRewardsCapped.sol:StakingRewardsCapped",
        "label": "userRewardPerTokenPaid",
        "offset": 0,
        "slot": "9",
        "type": "t_mapping(t_address,t_uint256)"
      },
      {
        "astId": 188,
        "contract": "contracts/farming/synthetix/contracts/StakingRewardsCapped.sol:StakingRewardsCapped",
        "label": "rewards",
        "offset": 0,
        "slot": "10",
        "type": "t_mapping(t_address,t_uint256)"
      },
      {
        "astId": 190,
        "contract": "contracts/farming/synthetix/contracts/StakingRewardsCapped.sol:StakingRewardsCapped",
        "label": "maxRewardRatePerToken",
        "offset": 0,
        "slot": "11",
        "type": "t_uint256"
      },
      {
        "astId": 192,
        "contract": "contracts/farming/synthetix/contracts/StakingRewardsCapped.sol:StakingRewardsCapped",
        "label": "withheldRewards",
        "offset": 0,
        "slot": "12",
        "type": "t_uint256"
      },
      {
        "astId": 194,
        "contract": "contracts/farming/synthetix/contracts/StakingRewardsCapped.sol:StakingRewardsCapped",
        "label": "_totalSupply",
        "offset": 0,
        "slot": "13",
        "type": "t_uint256"
      },
      {
        "astId": 198,
        "contract": "contracts/farming/synthetix/contracts/StakingRewardsCapped.sol:StakingRewardsCapped",
        "label": "_balances",
        "offset": 0,
        "slot": "14",
        "type": "t_mapping(t_address,t_uint256)"
      }
    ],
    "types": {
      "t_address": {
        "encoding": "inplace",
        "label": "address",
        "numberOfBytes": "20"
      },
      "t_mapping(t_address,t_uint256)": {
        "encoding": "mapping",
        "key": "t_address",
        "label": "mapping(address => uint256)",
        "numberOfBytes": "32",
        "value": "t_uint256"
      },
      "t_uint256": {
        "encoding": "inplace",
        "label": "uint256",
        "numberOfBytes": "32"
      }
    }
  }
}