{
  "address": "0x0Bc1d7bc3F72bd79610b2aaD1E4dF8F5B076E30e",
  "abi": [
    {
      "inputs": [
        {
          "internalType": "address",
          "name": "_newUbe",
          "type": "address"
        },
        {
          "internalType": "address",
          "name": "_oldUbe",
          "type": "address"
        },
        {
          "internalType": "uint256",
          "name": "_startDate",
          "type": "uint256"
        },
        {
          "internalType": "uint256",
          "name": "_endDate",
          "type": "uint256"
        },
        {
          "internalType": "uint256",
          "name": "_exchangeRate",
          "type": "uint256"
        }
      ],
      "stateMutability": "nonpayable",
      "type": "constructor"
    },
    {
      "inputs": [],
      "name": "AccessControlBadConfirmation",
      "type": "error"
    },
    {
      "inputs": [
        {
          "internalType": "address",
          "name": "account",
          "type": "address"
        },
        {
          "internalType": "bytes32",
          "name": "neededRole",
          "type": "bytes32"
        }
      ],
      "name": "AccessControlUnauthorizedAccount",
      "type": "error"
    },
    {
      "inputs": [],
      "name": "EnforcedPause",
      "type": "error"
    },
    {
      "inputs": [],
      "name": "ExpectedPause",
      "type": "error"
    },
    {
      "inputs": [],
      "name": "ReentrancyGuardReentrantCall",
      "type": "error"
    },
    {
      "anonymous": false,
      "inputs": [
        {
          "indexed": false,
          "internalType": "address",
          "name": "account",
          "type": "address"
        }
      ],
      "name": "Paused",
      "type": "event"
    },
    {
      "anonymous": false,
      "inputs": [
        {
          "indexed": true,
          "internalType": "bytes32",
          "name": "role",
          "type": "bytes32"
        },
        {
          "indexed": true,
          "internalType": "bytes32",
          "name": "previousAdminRole",
          "type": "bytes32"
        },
        {
          "indexed": true,
          "internalType": "bytes32",
          "name": "newAdminRole",
          "type": "bytes32"
        }
      ],
      "name": "RoleAdminChanged",
      "type": "event"
    },
    {
      "anonymous": false,
      "inputs": [
        {
          "indexed": true,
          "internalType": "bytes32",
          "name": "role",
          "type": "bytes32"
        },
        {
          "indexed": true,
          "internalType": "address",
          "name": "account",
          "type": "address"
        },
        {
          "indexed": true,
          "internalType": "address",
          "name": "sender",
          "type": "address"
        }
      ],
      "name": "RoleGranted",
      "type": "event"
    },
    {
      "anonymous": false,
      "inputs": [
        {
          "indexed": true,
          "internalType": "bytes32",
          "name": "role",
          "type": "bytes32"
        },
        {
          "indexed": true,
          "internalType": "address",
          "name": "account",
          "type": "address"
        },
        {
          "indexed": true,
          "internalType": "address",
          "name": "sender",
          "type": "address"
        }
      ],
      "name": "RoleRevoked",
      "type": "event"
    },
    {
      "anonymous": false,
      "inputs": [
        {
          "indexed": true,
          "internalType": "address",
          "name": "participant",
          "type": "address"
        },
        {
          "indexed": false,
          "internalType": "uint256",
          "name": "amount",
          "type": "uint256"
        }
      ],
      "name": "TokenReleased",
      "type": "event"
    },
    {
      "anonymous": false,
      "inputs": [
        {
          "indexed": false,
          "internalType": "address",
          "name": "account",
          "type": "address"
        }
      ],
      "name": "Unpaused",
      "type": "event"
    },
    {
      "inputs": [],
      "name": "DEFAULT_ADMIN_ROLE",
      "outputs": [
        {
          "internalType": "bytes32",
          "name": "",
          "type": "bytes32"
        }
      ],
      "stateMutability": "view",
      "type": "function"
    },
    {
      "inputs": [],
      "name": "PAUSER_ROLE",
      "outputs": [
        {
          "internalType": "bytes32",
          "name": "",
          "type": "bytes32"
        }
      ],
      "stateMutability": "view",
      "type": "function"
    },
    {
      "inputs": [],
      "name": "SEED",
      "outputs": [
        {
          "internalType": "bytes32",
          "name": "",
          "type": "bytes32"
        }
      ],
      "stateMutability": "view",
      "type": "function"
    },
    {
      "inputs": [],
      "name": "WHITELISTER_ROLE",
      "outputs": [
        {
          "internalType": "bytes32",
          "name": "",
          "type": "bytes32"
        }
      ],
      "stateMutability": "view",
      "type": "function"
    },
    {
      "inputs": [
        {
          "internalType": "address",
          "name": "",
          "type": "address"
        }
      ],
      "name": "accountToConvertedAmount",
      "outputs": [
        {
          "internalType": "uint256",
          "name": "",
          "type": "uint256"
        }
      ],
      "stateMutability": "view",
      "type": "function"
    },
    {
      "inputs": [
        {
          "internalType": "uint256",
          "name": "_oldUbeAmount",
          "type": "uint256"
        },
        {
          "internalType": "uint256",
          "name": "_maxOldUbeAmount",
          "type": "uint256"
        },
        {
          "internalType": "bytes",
          "name": "_signature",
          "type": "bytes"
        }
      ],
      "name": "convert",
      "outputs": [
        {
          "internalType": "bool",
          "name": "sucess",
          "type": "bool"
        }
      ],
      "stateMutability": "nonpayable",
      "type": "function"
    },
    {
      "inputs": [],
      "name": "endDate",
      "outputs": [
        {
          "internalType": "uint256",
          "name": "",
          "type": "uint256"
        }
      ],
      "stateMutability": "view",
      "type": "function"
    },
    {
      "inputs": [],
      "name": "exchangeRate",
      "outputs": [
        {
          "internalType": "uint256",
          "name": "",
          "type": "uint256"
        }
      ],
      "stateMutability": "view",
      "type": "function"
    },
    {
      "inputs": [
        {
          "internalType": "bytes32",
          "name": "role",
          "type": "bytes32"
        }
      ],
      "name": "getRoleAdmin",
      "outputs": [
        {
          "internalType": "bytes32",
          "name": "",
          "type": "bytes32"
        }
      ],
      "stateMutability": "view",
      "type": "function"
    },
    {
      "inputs": [
        {
          "internalType": "bytes32",
          "name": "role",
          "type": "bytes32"
        },
        {
          "internalType": "address",
          "name": "account",
          "type": "address"
        }
      ],
      "name": "grantRole",
      "outputs": [],
      "stateMutability": "nonpayable",
      "type": "function"
    },
    {
      "inputs": [
        {
          "internalType": "bytes32",
          "name": "role",
          "type": "bytes32"
        },
        {
          "internalType": "address",
          "name": "account",
          "type": "address"
        }
      ],
      "name": "hasRole",
      "outputs": [
        {
          "internalType": "bool",
          "name": "",
          "type": "bool"
        }
      ],
      "stateMutability": "view",
      "type": "function"
    },
    {
      "inputs": [],
      "name": "newUbe",
      "outputs": [
        {
          "internalType": "address",
          "name": "",
          "type": "address"
        }
      ],
      "stateMutability": "view",
      "type": "function"
    },
    {
      "inputs": [],
      "name": "oldUbe",
      "outputs": [
        {
          "internalType": "address",
          "name": "",
          "type": "address"
        }
      ],
      "stateMutability": "view",
      "type": "function"
    },
    {
      "inputs": [],
      "name": "pause",
      "outputs": [],
      "stateMutability": "nonpayable",
      "type": "function"
    },
    {
      "inputs": [],
      "name": "paused",
      "outputs": [
        {
          "internalType": "bool",
          "name": "",
          "type": "bool"
        }
      ],
      "stateMutability": "view",
      "type": "function"
    },
    {
      "inputs": [
        {
          "internalType": "bytes32",
          "name": "role",
          "type": "bytes32"
        },
        {
          "internalType": "address",
          "name": "callerConfirmation",
          "type": "address"
        }
      ],
      "name": "renounceRole",
      "outputs": [],
      "stateMutability": "nonpayable",
      "type": "function"
    },
    {
      "inputs": [
        {
          "internalType": "bytes32",
          "name": "role",
          "type": "bytes32"
        },
        {
          "internalType": "address",
          "name": "account",
          "type": "address"
        }
      ],
      "name": "revokeRole",
      "outputs": [],
      "stateMutability": "nonpayable",
      "type": "function"
    },
    {
      "inputs": [
        {
          "internalType": "uint256",
          "name": "_endDate",
          "type": "uint256"
        }
      ],
      "name": "setEndDate",
      "outputs": [],
      "stateMutability": "nonpayable",
      "type": "function"
    },
    {
      "inputs": [
        {
          "internalType": "uint256",
          "name": "_exchangeRate",
          "type": "uint256"
        }
      ],
      "name": "setExchangeRate",
      "outputs": [],
      "stateMutability": "nonpayable",
      "type": "function"
    },
    {
      "inputs": [
        {
          "internalType": "uint256",
          "name": "_startDate",
          "type": "uint256"
        }
      ],
      "name": "setStartDate",
      "outputs": [],
      "stateMutability": "nonpayable",
      "type": "function"
    },
    {
      "inputs": [],
      "name": "startDate",
      "outputs": [
        {
          "internalType": "uint256",
          "name": "",
          "type": "uint256"
        }
      ],
      "stateMutability": "view",
      "type": "function"
    },
    {
      "inputs": [
        {
          "internalType": "bytes4",
          "name": "interfaceId",
          "type": "bytes4"
        }
      ],
      "name": "supportsInterface",
      "outputs": [
        {
          "internalType": "bool",
          "name": "",
          "type": "bool"
        }
      ],
      "stateMutability": "view",
      "type": "function"
    },
    {
      "inputs": [],
      "name": "totalConvertedOldUbe",
      "outputs": [
        {
          "internalType": "uint256",
          "name": "",
          "type": "uint256"
        }
      ],
      "stateMutability": "view",
      "type": "function"
    },
    {
      "inputs": [],
      "name": "unpause",
      "outputs": [],
      "stateMutability": "nonpayable",
      "type": "function"
    },
    {
      "inputs": [
        {
          "internalType": "address",
          "name": "to",
          "type": "address"
        },
        {
          "internalType": "address",
          "name": "_token",
          "type": "address"
        },
        {
          "internalType": "uint256",
          "name": "_amount",
          "type": "uint256"
        }
      ],
      "name": "withdraw",
      "outputs": [
        {
          "internalType": "bool",
          "name": "success",
          "type": "bool"
        }
      ],
      "stateMutability": "nonpayable",
      "type": "function"
    }
  ],
  "transactionHash": "0xe30f0252630b24475c79647a382d696498f359acfb0c43d2a447b4d153e0d584",
  "args": [
    "0xBe1f163363bE3C3318635dA3d709b0faf0879DF7",
    "0x2052a4743c98ec1e5d6E306b7ff558Fc1C50F75a",
    0,
    "115792089237316195423570985008687907853269984665640564039457584007913129639935",
    150
  ],
  "numDeployments": 1,
  "solcInputHash": "f6e98f7dad14aa2a3b0ac8863b655ebf",
  "bytecode": "0x60a06040527ffb55cf2100267e51357646922ff30aba45462e837a22a6197d6e1e4733b45e536080523480156200003557600080fd5b50604051620011ab380380620011ab8339810160408190526200005891620001d2565b60016000908155600280546001600160a81b0319166101006001600160a01b038981169190910291909117909155600380546001600160a01b031916918716919091179055600484905560058390556006829055620000b890336200011e565b50620000e57f65d7a28e3265b37a6474929f336521b332c1681b933f6cb9f3376673440d862a336200011e565b50620001127f8619cecd8b9e095ab43867f5b69d492180450fe862e6b50bfbfb24b75dd84c8a336200011e565b50505050505062000225565b60008281526001602090815260408083206001600160a01b038516845290915281205460ff16620001ab5760008381526001602081815260408084206001600160a01b0387168086529252808420805460ff19169093179092559051339286917f2f8788117e7eff1d82e926ec794901d17c78024a50270940304540a733656f0d9190a4506001620001af565b5060005b92915050565b80516001600160a01b0381168114620001cd57600080fd5b919050565b600080600080600060a08688031215620001eb57600080fd5b620001f686620001b5565b94506200020660208701620001b5565b6040870151606088015160809098015196999198509695945092505050565b608051610f6362000248600039600081816101c5015261060f0152610f636000f3fe608060405234801561001057600080fd5b50600436106101735760003560e01c806382d95df5116100de578063c24a0f8b11610097578063db068e0e11610071578063db068e0e1461033e578063e50586d114610351578063e63ab1e914610364578063f04a0bd41461038b57600080fd5b8063c24a0f8b1461030f578063d547741f14610318578063d9caed121461032b57600080fd5b806382d95df5146102895780638456cb591461029c57806391d14854146102a4578063a217fddf146102b7578063aa9738e0146102bf578063b31998e5146102ef57600080fd5b806336568abe1161013057806336568abe146102205780633784f000146102335780633ba0b9a9146102465780633f4ba83a1461024f578063570618e1146102575780635c975abb1461027e57600080fd5b806301ffc9a71461017857806303d2a20b146101a05780630b97bc86146101b75780630edc4737146101c0578063248a9ca3146101e75780632f2ff15d1461020b575b600080fd5b61018b610186366004610cd7565b61039e565b60405190151581526020015b60405180910390f35b6101a960075481565b604051908152602001610197565b6101a960045481565b6101a97f000000000000000000000000000000000000000000000000000000000000000081565b6101a96101f5366004610d01565b6000908152600160208190526040909120015490565b61021e610219366004610d36565b6103af565b005b61021e61022e366004610d36565b6103db565b61021e610241366004610d01565b610413565b6101a960065481565b61021e610424565b6101a97f8619cecd8b9e095ab43867f5b69d492180450fe862e6b50bfbfb24b75dd84c8a81565b60025460ff1661018b565b61021e610297366004610d01565b610459565b61021e61046a565b61018b6102b2366004610d36565b61049c565b6101a9600081565b6002546102d79061010090046001600160a01b031681565b6040516001600160a01b039091168152602001610197565b6101a96102fd366004610d62565b60086020526000908152604090205481565b6101a960055481565b61021e610326366004610d36565b6104c7565b61018b610339366004610d7d565b6104ed565b61021e61034c366004610d01565b6105e6565b6003546102d7906001600160a01b031681565b6101a97f65d7a28e3265b37a6474929f336521b332c1681b933f6cb9f3376673440d862a81565b61018b610399366004610dcf565b6105f7565b60006103a982610957565b92915050565b600082815260016020819052604090912001546103cb8161098c565b6103d58383610996565b50505050565b6001600160a01b03811633146104045760405163334bd91960e11b815260040160405180910390fd5b61040e8282610a0f565b505050565b600061041e8161098c565b50600555565b7f65d7a28e3265b37a6474929f336521b332c1681b933f6cb9f3376673440d862a61044e8161098c565b610456610a7c565b50565b60006104648161098c565b50600455565b7f65d7a28e3265b37a6474929f336521b332c1681b933f6cb9f3376673440d862a6104948161098c565b610456610ace565b60009182526001602090815260408084206001600160a01b0393909316845291905290205460ff1690565b600082815260016020819052604090912001546104e38161098c565b6103d58383610a0f565b6000806104f98161098c565b6001600160a01b038416610565576000856001600160a01b03168460405160006040518083038185875af1925050503d8060008114610554576040519150601f19603f3d011682016040523d82523d6000602084013e610559565b606091505b509093506105de915050565b60405163a9059cbb60e01b81526001600160a01b0386811660048301526024820185905285169063a9059cbb906044016020604051808303816000875af11580156105b4573d6000803e3d6000fd5b505050506040513d601f19601f820116820180604052508101906105d89190610e93565b50600191505b509392505050565b60006105f18161098c565b50600655565b6000610601610b0b565b610609610b35565b604080517f00000000000000000000000000000000000000000000000000000000000000006020808301919091526bffffffffffffffffffffffff193360601b1682840152605480830187905283518084039091018152607490920190925280519101207f19457468657265756d205369676e6564204d6573736167653a0a3332000000006000908152601c91909152603c812090806106a98386610b5b565b50909250905060008160038111156106c3576106c3610eb5565b1480156106f557506106f57f8619cecd8b9e095ab43867f5b69d492180450fe862e6b50bfbfb24b75dd84c8a8361049c565b6107465760405162461bcd60e51b815260206004820152601760248201527f596f7520617265206e6f742077686974656c697374656400000000000000000060448201526064015b60405180910390fd5b600454421015801561075a57506005544211155b6107a65760405162461bcd60e51b815260206004820152601860248201527f436f6e76657273696f6e206973206e6f74206163746976650000000000000000604482015260640161073d565b33600090815260086020526040812054906107c18983610ee1565b9050878111156107ff5760405162461bcd60e51b81526020600482015260096024820152681b585e081b1a5b5a5d60ba1b604482015260640161073d565b336000908152600860205260408120829055600780548b9290610823908490610ee1565b90915550506003546040516323b872dd60e01b8152336004820152306024820152604481018b90526001600160a01b03909116906323b872dd906064016020604051808303816000875af115801561087f573d6000803e3d6000fd5b505050506040513d601f19601f820116820180604052508101906108a39190610e93565b50600060646006548b6108b69190610ef4565b6108c09190610f0b565b60025460405163a9059cbb60e01b81523360048201526024810183905291925061010090046001600160a01b03169063a9059cbb906044016020604051808303816000875af1158015610917573d6000803e3d6000fd5b505050506040513d601f19601f8201168201806040525081019061093b9190610e93565b50600196505050505050506109506001600055565b9392505050565b60006001600160e01b03198216637965db0b60e01b14806103a957506301ffc9a760e01b6001600160e01b03198316146103a9565b6104568133610ba8565b60006109a2838361049c565b610a075760008381526001602081815260408084206001600160a01b0387168086529252808420805460ff19169093179092559051339286917f2f8788117e7eff1d82e926ec794901d17c78024a50270940304540a733656f0d9190a45060016103a9565b5060006103a9565b6000610a1b838361049c565b15610a075760008381526001602090815260408083206001600160a01b0386168085529252808320805460ff1916905551339286917ff6391f5c32d9c69d2a47ea670b442974b53935d1edc7fd64eb21e047a839171b9190a45060016103a9565b610a84610be5565b6002805460ff191690557f5db9ee0a495bf2e6ff9c91a7834c1ba4fdd244a5e8aa4e537bd38aeae4b073aa335b6040516001600160a01b03909116815260200160405180910390a1565b610ad6610b35565b6002805460ff191660011790557f62e78cea01bee320cd4e420270b5ea74000d11b0c9f74754ebdbfc544b05a258610ab13390565b600260005403610b2e57604051633ee5aeb560e01b815260040160405180910390fd5b6002600055565b60025460ff1615610b595760405163d93c066560e01b815260040160405180910390fd5b565b60008060008351604103610b955760208401516040850151606086015160001a610b8788828585610c08565b955095509550505050610ba1565b50508151600091506002905b9250925092565b610bb2828261049c565b610be15760405163e2517d3f60e01b81526001600160a01b03821660048201526024810183905260440161073d565b5050565b60025460ff16610b5957604051638dfc202b60e01b815260040160405180910390fd5b600080807f7fffffffffffffffffffffffffffffff5d576e7357a4501ddfe92f46681b20a0841115610c435750600091506003905082610ccd565b604080516000808252602082018084528a905260ff891692820192909252606081018790526080810186905260019060a0016020604051602081039080840390855afa158015610c97573d6000803e3d6000fd5b5050604051601f1901519150506001600160a01b038116610cc357506000925060019150829050610ccd565b9250600091508190505b9450945094915050565b600060208284031215610ce957600080fd5b81356001600160e01b03198116811461095057600080fd5b600060208284031215610d1357600080fd5b5035919050565b80356001600160a01b0381168114610d3157600080fd5b919050565b60008060408385031215610d4957600080fd5b82359150610d5960208401610d1a565b90509250929050565b600060208284031215610d7457600080fd5b61095082610d1a565b600080600060608486031215610d9257600080fd5b610d9b84610d1a565b9250610da960208501610d1a565b9150604084013590509250925092565b634e487b7160e01b600052604160045260246000fd5b600080600060608486031215610de457600080fd5b8335925060208401359150604084013567ffffffffffffffff80821115610e0a57600080fd5b818601915086601f830112610e1e57600080fd5b813581811115610e3057610e30610db9565b604051601f8201601f19908116603f01168101908382118183101715610e5857610e58610db9565b81604052828152896020848701011115610e7157600080fd5b8260208601602083013760006020848301015280955050505050509250925092565b600060208284031215610ea557600080fd5b8151801515811461095057600080fd5b634e487b7160e01b600052602160045260246000fd5b634e487b7160e01b600052601160045260246000fd5b808201808211156103a9576103a9610ecb565b80820281158282048414176103a9576103a9610ecb565b600082610f2857634e487b7160e01b600052601260045260246000fd5b50049056fea2646970667358221220d83aac2c398a8248e18a117c76524a110b3b3b9eccc76f6fe27598147369750464736f6c63430008170033",
  "devdoc": {
    "errors": {
      "AccessControlBadConfirmation()": [
        {
          "details": "The caller of a function is not the expected one. NOTE: Don't confuse with {AccessControlUnauthorizedAccount}."
        }
      ],
      "AccessControlUnauthorizedAccount(address,bytes32)": [
        {
          "details": "The `account` is missing a role."
        }
      ],
      "EnforcedPause()": [
        {
          "details": "The operation failed because the contract is paused."
        }
      ],
      "ExpectedPause()": [
        {
          "details": "The operation failed because the contract is not paused."
        }
      ],
      "ReentrancyGuardReentrantCall()": [
        {
          "details": "Unauthorized reentrant call."
        }
      ]
    },
    "events": {
      "Paused(address)": {
        "details": "Emitted when the pause is triggered by `account`."
      },
      "RoleAdminChanged(bytes32,bytes32,bytes32)": {
        "details": "Emitted when `newAdminRole` is set as ``role``'s admin role, replacing `previousAdminRole` `DEFAULT_ADMIN_ROLE` is the starting admin for all roles, despite {RoleAdminChanged} not being emitted signaling this."
      },
      "RoleGranted(bytes32,address,address)": {
        "details": "Emitted when `account` is granted `role`. `sender` is the account that originated the contract call, an admin role bearer except when using {AccessControl-_setupRole}."
      },
      "RoleRevoked(bytes32,address,address)": {
        "details": "Emitted when `account` is revoked `role`. `sender` is the account that originated the contract call:   - if using `revokeRole`, it is the admin role bearer   - if using `renounceRole`, it is the role bearer (i.e. `account`)"
      },
      "Unpaused(address)": {
        "details": "Emitted when the pause is lifted by `account`."
      }
    },
    "kind": "dev",
    "methods": {
      "convert(uint256,uint256,bytes)": {
        "details": "convert old ube tokens to new",
        "params": {
          "_maxOldUbeAmount": "(type uint256) amount of oldUbe tokens the user can convert max",
          "_oldUbeAmount": "(type uint256) amount of oldUbe tokens to convert",
          "_signature": "(type bytes) signature that proves that the caller is whitelisted"
        }
      },
      "getRoleAdmin(bytes32)": {
        "details": "Returns the admin role that controls `role`. See {grantRole} and {revokeRole}. To change a role's admin, use {_setRoleAdmin}."
      },
      "grantRole(bytes32,address)": {
        "details": "Grants `role` to `account`. If `account` had not been already granted `role`, emits a {RoleGranted} event. Requirements: - the caller must have ``role``'s admin role. May emit a {RoleGranted} event."
      },
      "hasRole(bytes32,address)": {
        "details": "Returns `true` if `account` has been granted `role`."
      },
      "paused()": {
        "details": "Returns true if the contract is paused, and false otherwise."
      },
      "renounceRole(bytes32,address)": {
        "details": "Revokes `role` from the calling account. Roles are often managed via {grantRole} and {revokeRole}: this function's purpose is to provide a mechanism for accounts to lose their privileges if they are compromised (such as when a trusted device is misplaced). If the calling account had been revoked `role`, emits a {RoleRevoked} event. Requirements: - the caller must be `callerConfirmation`. May emit a {RoleRevoked} event."
      },
      "revokeRole(bytes32,address)": {
        "details": "Revokes `role` from `account`. If `account` had been granted `role`, emits a {RoleRevoked} event. Requirements: - the caller must have ``role``'s admin role. May emit a {RoleRevoked} event."
      },
      "supportsInterface(bytes4)": {
        "details": "See {IERC165-supportsInterface}."
      },
      "withdraw(address,address,uint256)": {
        "params": {
          "_amount": "(type uint256) amount of buyCurrency",
          "_token": "(type address) ERC20 token address (can be buyCurrency)"
        }
      }
    },
    "version": 1
  },
  "userdoc": {
    "kind": "user",
    "methods": {},
    "version": 1
  },
  "storageLayout": {
    "storage": [
      {
        "astId": 614,
        "contract": "contracts/UbeConvert.sol:UbeConvert",
        "label": "_status",
        "offset": 0,
        "slot": "0",
        "type": "t_uint256"
      },
      {
        "astId": 26,
        "contract": "contracts/UbeConvert.sol:UbeConvert",
        "label": "_roles",
        "offset": 0,
        "slot": "1",
        "type": "t_mapping(t_bytes32,t_struct(RoleData)21_storage)"
      },
      {
        "astId": 495,
        "contract": "contracts/UbeConvert.sol:UbeConvert",
        "label": "_paused",
        "offset": 0,
        "slot": "2",
        "type": "t_bool"
      },
      {
        "astId": 2581,
        "contract": "contracts/UbeConvert.sol:UbeConvert",
        "label": "newUbe",
        "offset": 1,
        "slot": "2",
        "type": "t_address"
      },
      {
        "astId": 2583,
        "contract": "contracts/UbeConvert.sol:UbeConvert",
        "label": "oldUbe",
        "offset": 0,
        "slot": "3",
        "type": "t_address"
      },
      {
        "astId": 2585,
        "contract": "contracts/UbeConvert.sol:UbeConvert",
        "label": "startDate",
        "offset": 0,
        "slot": "4",
        "type": "t_uint256"
      },
      {
        "astId": 2587,
        "contract": "contracts/UbeConvert.sol:UbeConvert",
        "label": "endDate",
        "offset": 0,
        "slot": "5",
        "type": "t_uint256"
      },
      {
        "astId": 2589,
        "contract": "contracts/UbeConvert.sol:UbeConvert",
        "label": "exchangeRate",
        "offset": 0,
        "slot": "6",
        "type": "t_uint256"
      },
      {
        "astId": 2591,
        "contract": "contracts/UbeConvert.sol:UbeConvert",
        "label": "totalConvertedOldUbe",
        "offset": 0,
        "slot": "7",
        "type": "t_uint256"
      },
      {
        "astId": 2595,
        "contract": "contracts/UbeConvert.sol:UbeConvert",
        "label": "accountToConvertedAmount",
        "offset": 0,
        "slot": "8",
        "type": "t_mapping(t_address,t_uint256)"
      }
    ],
    "types": {
      "t_address": {
        "encoding": "inplace",
        "label": "address",
        "numberOfBytes": "20"
      },
      "t_bool": {
        "encoding": "inplace",
        "label": "bool",
        "numberOfBytes": "1"
      },
      "t_bytes32": {
        "encoding": "inplace",
        "label": "bytes32",
        "numberOfBytes": "32"
      },
      "t_mapping(t_address,t_bool)": {
        "encoding": "mapping",
        "key": "t_address",
        "label": "mapping(address => bool)",
        "numberOfBytes": "32",
        "value": "t_bool"
      },
      "t_mapping(t_address,t_uint256)": {
        "encoding": "mapping",
        "key": "t_address",
        "label": "mapping(address => uint256)",
        "numberOfBytes": "32",
        "value": "t_uint256"
      },
      "t_mapping(t_bytes32,t_struct(RoleData)21_storage)": {
        "encoding": "mapping",
        "key": "t_bytes32",
        "label": "mapping(bytes32 => struct AccessControl.RoleData)",
        "numberOfBytes": "32",
        "value": "t_struct(RoleData)21_storage"
      },
      "t_struct(RoleData)21_storage": {
        "encoding": "inplace",
        "label": "struct AccessControl.RoleData",
        "members": [
          {
            "astId": 18,
            "contract": "contracts/UbeConvert.sol:UbeConvert",
            "label": "hasRole",
            "offset": 0,
            "slot": "0",
            "type": "t_mapping(t_address,t_bool)"
          },
          {
            "astId": 20,
            "contract": "contracts/UbeConvert.sol:UbeConvert",
            "label": "adminRole",
            "offset": 0,
            "slot": "1",
            "type": "t_bytes32"
          }
        ],
        "numberOfBytes": "64"
      },
      "t_uint256": {
        "encoding": "inplace",
        "label": "uint256",
        "numberOfBytes": "32"
      }
    }
  }
}