{
  "address": "0xAe4634bE8c69Ff602e6Dd9a1e3C5cEcCa3502968",
  "abi": [
    {
      "inputs": [
        {
          "internalType": "address",
          "name": "token",
          "type": "address"
        },
        {
          "internalType": "address",
          "name": "beneficiaryAddress",
          "type": "address"
        },
        {
          "internalType": "uint64",
          "name": "startTimestamp",
          "type": "uint64"
        },
        {
          "internalType": "uint64",
          "name": "durationSeconds",
          "type": "uint64"
        },
        {
          "internalType": "uint64",
          "name": "intervalSeconds",
          "type": "uint64"
        }
      ],
      "stateMutability": "nonpayable",
      "type": "constructor"
    },
    {
      "anonymous": false,
      "inputs": [
        {
          "indexed": false,
          "internalType": "uint256",
          "name": "amount",
          "type": "uint256"
        }
      ],
      "name": "Released",
      "type": "event"
    },
    {
      "inputs": [],
      "name": "beneficiary",
      "outputs": [
        {
          "internalType": "address",
          "name": "",
          "type": "address"
        }
      ],
      "stateMutability": "view",
      "type": "function"
    },
    {
      "inputs": [],
      "name": "duration",
      "outputs": [
        {
          "internalType": "uint256",
          "name": "",
          "type": "uint256"
        }
      ],
      "stateMutability": "view",
      "type": "function"
    },
    {
      "inputs": [],
      "name": "interval",
      "outputs": [
        {
          "internalType": "uint256",
          "name": "",
          "type": "uint256"
        }
      ],
      "stateMutability": "view",
      "type": "function"
    },
    {
      "inputs": [],
      "name": "release",
      "outputs": [],
      "stateMutability": "nonpayable",
      "type": "function"
    },
    {
      "inputs": [
        {
          "internalType": "uint256",
          "name": "amount",
          "type": "uint256"
        }
      ],
      "name": "releaseAmount",
      "outputs": [],
      "stateMutability": "nonpayable",
      "type": "function"
    },
    {
      "inputs": [],
      "name": "released",
      "outputs": [
        {
          "internalType": "uint256",
          "name": "",
          "type": "uint256"
        }
      ],
      "stateMutability": "view",
      "type": "function"
    },
    {
      "inputs": [],
      "name": "start",
      "outputs": [
        {
          "internalType": "uint256",
          "name": "",
          "type": "uint256"
        }
      ],
      "stateMutability": "view",
      "type": "function"
    },
    {
      "inputs": [
        {
          "internalType": "uint64",
          "name": "timestamp",
          "type": "uint64"
        }
      ],
      "name": "vestedAmount",
      "outputs": [
        {
          "internalType": "uint256",
          "name": "",
          "type": "uint256"
        }
      ],
      "stateMutability": "view",
      "type": "function"
    },
    {
      "inputs": [
        {
          "internalType": "address",
          "name": "to",
          "type": "address"
        },
        {
          "internalType": "address",
          "name": "token",
          "type": "address"
        },
        {
          "internalType": "uint256",
          "name": "amount",
          "type": "uint256"
        }
      ],
      "name": "withdraw",
      "outputs": [
        {
          "internalType": "bool",
          "name": "success",
          "type": "bool"
        }
      ],
      "stateMutability": "nonpayable",
      "type": "function"
    }
  ],
  "transactionHash": "0x0dd27c55df0bda77045419b7ec33ca99b8172937498868e91e38554ca052204c",
  "args": [
    "0x71e26d0E519D14591b9dE9a0fE9513A398101490",
    "0xC4294309894279c5722681Ca2A47D4D3bcb7fA91",
    1710504000,
    94348800,
    604800
  ],
  "numDeployments": 1,
  "solcInputHash": "5f13b079ee82829341d727999ffcda44",
  "bytecode": "0x6101206040523480156200001257600080fd5b5060405162000ef438038062000ef4833981016040819052620000359162000142565b6001600160a01b038516620000815760405162461bcd60e51b815260206004820152600d60248201526c34b73b30b634b2103a37b5b2b760991b60448201526064015b60405180910390fd5b6001600160a01b038416620000d95760405162461bcd60e51b815260206004820152601360248201527f696e76616c69642062656e656669636961727900000000000000000000000000604482015260640162000078565b6001600160a01b039485166080529290931660a0526001600160401b0390811660c05291821660e0521661010052620001b2565b80516001600160a01b03811681146200012557600080fd5b919050565b80516001600160401b03811681146200012557600080fd5b600080600080600060a086880312156200015b57600080fd5b62000166866200010d565b945062000176602087016200010d565b935062000186604087016200012a565b925062000196606087016200012a565b9150620001a6608087016200012a565b90509295509295909350565b60805160a05160c05160e05161010051610cb86200023c600039600081816101440152818161078d01526107f601526000818160c00152818161070a01526107b1015260006104f8015260008181610110015281816103c4015281816104c5015261051f0152600081816101c8015281816103a3015281816104a401526105940152610cb86000f3fe608060405234801561001057600080fd5b50600436106100935760003560e01c806386d1a69f1161006657806386d1a69f1461013a578063947a36fb146101425780639613252114610172578063be9a65551461017a578063d9caed121461018257600080fd5b80630a17b06b146100985780630fb5a6b4146100be5780632278f36b146100ee57806338af3eed14610103575b600080fd5b6100ab6100a6366004610ac4565b6101a5565b6040519081526020015b60405180910390f35b7f000000000000000000000000000000000000000000000000000000000000000067ffffffffffffffff166100ab565b6101016100fc366004610aee565b610251565b005b6040516001600160a01b037f00000000000000000000000000000000000000000000000000000000000000001681526020016100b5565b6101016103ed565b7f000000000000000000000000000000000000000000000000000000000000000067ffffffffffffffff166100ab565b6000546100ab565b6100ab6104ed565b610195610190366004610b23565b61051b565b60405190151581526020016100b5565b600061024b6101b360005490565b6040516370a0823160e01b81523060048201527f00000000000000000000000000000000000000000000000000000000000000006001600160a01b0316906370a0823190602401602060405180830381865afa158015610217573d6000803e3d6000fd5b505050506040513d601f19601f8201168201806040525081019061023b9190610b5f565b6102459190610b8e565b836106e5565b92915050565b6000805461025e426101a5565b6102689190610ba1565b9050600081116102bf5760405162461bcd60e51b815260206004820152601b60248201527f52656c656173653a204e6f207665737461626c6520616d6f756e74000000000060448201526064015b60405180910390fd5b600082116103055760405162461bcd60e51b8152602060048201526013602482015272052656c656173653a20616d6f756e74203e203606c1b60448201526064016102b6565b808211156103555760405162461bcd60e51b815260206004820152601d60248201527f52656c656173653a20616d6f756e74203c3d2072656c65617361626c6500000060448201526064016102b6565b816000808282546103669190610b8e565b90915550506040518281527ffb81f9b30d73d830c3544b34d827c08142579ee75710b490bab0b3995468c5659060200160405180910390a16103e97f00000000000000000000000000000000000000000000000000000000000000007f000000000000000000000000000000000000000000000000000000000000000084610833565b5050565b600080546103fa426101a5565b6104049190610ba1565b9050600081116104565760405162461bcd60e51b815260206004820152601b60248201527f52656c656173653a204e6f207665737461626c6520616d6f756e74000000000060448201526064016102b6565b806000808282546104679190610b8e565b90915550506040518181527ffb81f9b30d73d830c3544b34d827c08142579ee75710b490bab0b3995468c5659060200160405180910390a16104ea7f00000000000000000000000000000000000000000000000000000000000000007f000000000000000000000000000000000000000000000000000000000000000083610833565b50565b67ffffffffffffffff7f00000000000000000000000000000000000000000000000000000000000000001690565b60007f00000000000000000000000000000000000000000000000000000000000000006001600160a01b031633146105885760405162461bcd60e51b815260206004820152601060248201526f6f6e6c792062656e656669636961727960801b60448201526064016102b6565b826001600160a01b03167f00000000000000000000000000000000000000000000000000000000000000006001600160a01b0316036105f95760405162461bcd60e51b815260206004820152600d60248201526c34b73b30b634b2103a37b5b2b760991b60448201526064016102b6565b6001600160a01b038316610665576000846001600160a01b03168360405160006040518083038185875af1925050503d8060008114610654576040519150601f19603f3d011682016040523d82523d6000602084013e610659565b606091505b509092506106de915050565b60405163a9059cbb60e01b81526001600160a01b0385811660048301526024820184905284169063a9059cbb906044016020604051808303816000875af11580156106b4573d6000803e3d6000fd5b505050506040513d601f19601f820116820180604052508101906106d89190610bb4565b50600190505b9392505050565b60006106ef6104ed565b8267ffffffffffffffff1610156107085750600061024b565b7f000000000000000000000000000000000000000000000000000000000000000067ffffffffffffffff1661073b6104ed565b6107459190610b8e565b8267ffffffffffffffff16111561075d57508161024b565b60006107676104ed565b61077b9067ffffffffffffffff8516610ba1565b905060006107d667ffffffffffffffff7f00000000000000000000000000000000000000000000000000000000000000008116907f000000000000000000000000000000000000000000000000000000000000000016610bd6565b905060006107e48287610bd6565b9050600061081c67ffffffffffffffff7f00000000000000000000000000000000000000000000000000000000000000001685610bd6565b90506108288282610bf8565b979650505050505050565b604080516001600160a01b038416602482015260448082018490528251808303909101815260649091019091526020810180516001600160e01b031663a9059cbb60e01b17905261088590849061088a565b505050565b60006108df826040518060400160405280602081526020017f5361666545524332303a206c6f772d6c6576656c2063616c6c206661696c6564815250856001600160a01b031661095c9092919063ffffffff16565b80519091501561088557808060200190518101906108fd9190610bb4565b6108855760405162461bcd60e51b815260206004820152602a60248201527f5361666545524332303a204552433230206f7065726174696f6e20646964206e6044820152691bdd081cdd58d8d9595960b21b60648201526084016102b6565b606061096b8484600085610973565b949350505050565b6060824710156109d45760405162461bcd60e51b815260206004820152602660248201527f416464726573733a20696e73756666696369656e742062616c616e636520666f6044820152651c8818d85b1b60d21b60648201526084016102b6565b843b610a225760405162461bcd60e51b815260206004820152601d60248201527f416464726573733a2063616c6c20746f206e6f6e2d636f6e747261637400000060448201526064016102b6565b600080866001600160a01b03168587604051610a3e9190610c33565b60006040518083038185875af1925050503d8060008114610a7b576040519150601f19603f3d011682016040523d82523d6000602084013e610a80565b606091505b509150915061082882828660608315610a9a5750816106de565b825115610aaa5782518084602001fd5b8160405162461bcd60e51b81526004016102b69190610c4f565b600060208284031215610ad657600080fd5b813567ffffffffffffffff811681146106de57600080fd5b600060208284031215610b0057600080fd5b5035919050565b80356001600160a01b0381168114610b1e57600080fd5b919050565b600080600060608486031215610b3857600080fd5b610b4184610b07565b9250610b4f60208501610b07565b9150604084013590509250925092565b600060208284031215610b7157600080fd5b5051919050565b634e487b7160e01b600052601160045260246000fd5b8082018082111561024b5761024b610b78565b8181038181111561024b5761024b610b78565b600060208284031215610bc657600080fd5b815180151581146106de57600080fd5b600082610bf357634e487b7160e01b600052601260045260246000fd5b500490565b808202811582820484141761024b5761024b610b78565b60005b83811015610c2a578181015183820152602001610c12565b50506000910152565b60008251610c45818460208701610c0f565b9190910192915050565b6020815260008251806020840152610c6e816040850160208701610c0f565b601f01601f1916919091016040019291505056fea2646970667358221220e6040299116fd1c36579e340b80b86bee5fddbca36bc36e0dc25094ec67aba6664736f6c63430008170033",
  "devdoc": {
    "kind": "dev",
    "methods": {
      "beneficiary()": {
        "details": "Getter for the beneficiary address."
      },
      "constructor": {
        "details": "Set the token, beneficiary, start timestamp, vesting duration and release interval of the vesting wallet."
      },
      "duration()": {
        "details": "Getter for the vesting duration."
      },
      "interval()": {
        "details": "Getter for the vesting interval."
      },
      "release()": {
        "details": "Release the tokens that have already vested. Emits a {Released} event."
      },
      "releaseAmount(uint256)": {
        "details": "Release the tokens that have already vested. Emits a {Release} event."
      },
      "released()": {
        "details": "Amount of eth already released"
      },
      "start()": {
        "details": "Getter for the start timestamp."
      },
      "vestedAmount(uint64)": {
        "details": "Calculates the amount of tokens that has already vested. Default implementation is a linear vesting curve."
      }
    },
    "version": 1
  },
  "userdoc": {
    "kind": "user",
    "methods": {
      "withdraw(address,address,uint256)": {
        "notice": "Recovery function"
      }
    },
    "version": 1
  },
  "storageLayout": {
    "storage": [
      {
        "astId": 1457,
        "contract": "contracts/vestings/UbeMiningReserveVesting.sol:UbeMiningReserveVesting",
        "label": "_released",
        "offset": 0,
        "slot": "0",
        "type": "t_uint256"
      }
    ],
    "types": {
      "t_uint256": {
        "encoding": "inplace",
        "label": "uint256",
        "numberOfBytes": "32"
      }
    }
  }
}