{
  "address": "0xD355A00220FbA16b69Cd8C4fbE16E02CA855f928",
  "abi": [
    {
      "inputs": [
        {
          "internalType": "address",
          "name": "timelock_address_store_",
          "type": "address"
        },
        {
          "internalType": "address",
          "name": "token_",
          "type": "address"
        },
        {
          "internalType": "address",
          "name": "releaseToken_",
          "type": "address"
        },
        {
          "internalType": "address",
          "name": "implementation_",
          "type": "address"
        },
        {
          "internalType": "uint256",
          "name": "votingPeriod_",
          "type": "uint256"
        },
        {
          "internalType": "uint256",
          "name": "votingDelay_",
          "type": "uint256"
        },
        {
          "internalType": "uint256",
          "name": "proposalThreshold_",
          "type": "uint256"
        }
      ],
      "stateMutability": "nonpayable",
      "type": "constructor"
    },
    {
      "anonymous": false,
      "inputs": [
        {
          "indexed": false,
          "internalType": "address",
          "name": "oldAdmin",
          "type": "address"
        },
        {
          "indexed": false,
          "internalType": "address",
          "name": "newAdmin",
          "type": "address"
        }
      ],
      "name": "NewAdmin",
      "type": "event"
    },
    {
      "anonymous": false,
      "inputs": [
        {
          "indexed": false,
          "internalType": "address",
          "name": "oldImplementation",
          "type": "address"
        },
        {
          "indexed": false,
          "internalType": "address",
          "name": "newImplementation",
          "type": "address"
        }
      ],
      "name": "NewImplementation",
      "type": "event"
    },
    {
      "anonymous": false,
      "inputs": [
        {
          "indexed": false,
          "internalType": "address",
          "name": "oldPendingAdmin",
          "type": "address"
        },
        {
          "indexed": false,
          "internalType": "address",
          "name": "newPendingAdmin",
          "type": "address"
        }
      ],
      "name": "NewPendingAdmin",
      "type": "event"
    },
    {
      "anonymous": false,
      "inputs": [
        {
          "indexed": false,
          "internalType": "uint256",
          "name": "id",
          "type": "uint256"
        }
      ],
      "name": "ProposalCanceled",
      "type": "event"
    },
    {
      "anonymous": false,
      "inputs": [
        {
          "indexed": false,
          "internalType": "uint256",
          "name": "id",
          "type": "uint256"
        },
        {
          "indexed": false,
          "internalType": "address",
          "name": "proposer",
          "type": "address"
        },
        {
          "indexed": false,
          "internalType": "address[]",
          "name": "targets",
          "type": "address[]"
        },
        {
          "indexed": false,
          "internalType": "uint256[]",
          "name": "values",
          "type": "uint256[]"
        },
        {
          "indexed": false,
          "internalType": "string[]",
          "name": "signatures",
          "type": "string[]"
        },
        {
          "indexed": false,
          "internalType": "bytes[]",
          "name": "calldatas",
          "type": "bytes[]"
        },
        {
          "indexed": false,
          "internalType": "uint256",
          "name": "startBlock",
          "type": "uint256"
        },
        {
          "indexed": false,
          "internalType": "uint256",
          "name": "endBlock",
          "type": "uint256"
        },
        {
          "indexed": false,
          "internalType": "string",
          "name": "description",
          "type": "string"
        }
      ],
      "name": "ProposalCreated",
      "type": "event"
    },
    {
      "anonymous": false,
      "inputs": [
        {
          "indexed": false,
          "internalType": "uint256",
          "name": "id",
          "type": "uint256"
        }
      ],
      "name": "ProposalExecuted",
      "type": "event"
    },
    {
      "anonymous": false,
      "inputs": [
        {
          "indexed": false,
          "internalType": "uint256",
          "name": "id",
          "type": "uint256"
        },
        {
          "indexed": false,
          "internalType": "uint256",
          "name": "eta",
          "type": "uint256"
        }
      ],
      "name": "ProposalQueued",
      "type": "event"
    },
    {
      "anonymous": false,
      "inputs": [
        {
          "indexed": false,
          "internalType": "uint256",
          "name": "oldProposalThreshold",
          "type": "uint256"
        },
        {
          "indexed": false,
          "internalType": "uint256",
          "name": "newProposalThreshold",
          "type": "uint256"
        }
      ],
      "name": "ProposalThresholdSet",
      "type": "event"
    },
    {
      "anonymous": false,
      "inputs": [
        {
          "indexed": true,
          "internalType": "address",
          "name": "voter",
          "type": "address"
        },
        {
          "indexed": false,
          "internalType": "uint256",
          "name": "proposalId",
          "type": "uint256"
        },
        {
          "indexed": false,
          "internalType": "uint8",
          "name": "support",
          "type": "uint8"
        },
        {
          "indexed": false,
          "internalType": "uint256",
          "name": "votes",
          "type": "uint256"
        },
        {
          "indexed": false,
          "internalType": "string",
          "name": "reason",
          "type": "string"
        }
      ],
      "name": "VoteCast",
      "type": "event"
    },
    {
      "anonymous": false,
      "inputs": [
        {
          "indexed": false,
          "internalType": "uint256",
          "name": "oldVotingDelay",
          "type": "uint256"
        },
        {
          "indexed": false,
          "internalType": "uint256",
          "name": "newVotingDelay",
          "type": "uint256"
        }
      ],
      "name": "VotingDelaySet",
      "type": "event"
    },
    {
      "anonymous": false,
      "inputs": [
        {
          "indexed": false,
          "internalType": "uint256",
          "name": "oldVotingPeriod",
          "type": "uint256"
        },
        {
          "indexed": false,
          "internalType": "uint256",
          "name": "newVotingPeriod",
          "type": "uint256"
        }
      ],
      "name": "VotingPeriodSet",
      "type": "event"
    },
    {
      "stateMutability": "nonpayable",
      "type": "fallback"
    },
    {
      "inputs": [
        {
          "internalType": "address",
          "name": "implementation_",
          "type": "address"
        }
      ],
      "name": "_setImplementation",
      "outputs": [],
      "stateMutability": "nonpayable",
      "type": "function"
    },
    {
      "inputs": [],
      "name": "admin",
      "outputs": [
        {
          "internalType": "address",
          "name": "",
          "type": "address"
        }
      ],
      "stateMutability": "view",
      "type": "function"
    },
    {
      "inputs": [],
      "name": "implementation",
      "outputs": [
        {
          "internalType": "address",
          "name": "",
          "type": "address"
        }
      ],
      "stateMutability": "view",
      "type": "function"
    },
    {
      "inputs": [],
      "name": "pendingAdmin",
      "outputs": [
        {
          "internalType": "address",
          "name": "",
          "type": "address"
        }
      ],
      "stateMutability": "view",
      "type": "function"
    }
  ],
  "transactionHash": "0xb24101132cefa8b5dbcc574244c6bf9b369301a5487359ab366b6e7c523c913c",
  "args": [
    "0x58a113EEecc50D934b43158E601549becca89Ab5",
    "0x71e26d0E519D14591b9dE9a0fE9513A398101490",
    "0x0000000000000000000000000000000000000000",
    "0x64822fAD7B5B5d90D891415f8368Fd3B123DEe4C",
    86400,
    720,
    "1500000000000000000000000"
  ],
  "numDeployments": 1,
  "solcInputHash": "79c68ef25dfa8a62f958c6ed79051faf",
  "bytecode": "0x608060405234801561001057600080fd5b5060405161071a38038061071a83398101604081905261002f9161031f565b6000876001600160a01b0316636d4ce63c6040518163ffffffff1660e01b8152600401602060405180830381865afa15801561006f573d6000803e3d6000fd5b505050506040513d601f19601f820116820180604052508101906100939190610390565b600080546001600160a01b031916331790556040516001600160a01b0382811660248301528981166044830152881660648201526084810186905260a4810185905260c4810184905290915061011b90869060e40160408051601f198184030181529190526020810180516001600160e01b039081166339466de560e11b1790915261015116565b610124856101c4565b600080546001600160a01b0319166001600160a01b0392909216919091179055506103e195505050505050565b600080836001600160a01b03168360405161016c91906103b2565b600060405180830381855af49150503d80600081146101a7576040519150601f19603f3d011682016040523d82523d6000602084013e6101ac565b606091505b509092509050816101be573d60208201fd5b50505050565b6000546001600160a01b0316331461022a5760405162461bcd60e51b815260206004820152603060248201526000805160206106fa83398151915260448201526f74696f6e3a2061646d696e206f6e6c7960801b60648201526084015b60405180910390fd5b6001600160a01b0381166102a25760405162461bcd60e51b8152602060048201526044602482018190526000805160206106fa833981519152908201527f74696f6e3a20696e76616c696420696d706c656d656e746174696f6e206164646064820152637265737360e01b608482015260a401610221565b600280546001600160a01b038381166001600160a01b031983168117909355604080519190921680825260208201939093527fd604de94d45953f9138079ec1b82d533cb2160c906d1076d1f7ed54befbca97a910160405180910390a15050565b80516001600160a01b038116811461031a57600080fd5b919050565b600080600080600080600060e0888a03121561033a57600080fd5b61034388610303565b965061035160208901610303565b955061035f60408901610303565b945061036d60608901610303565b93506080880151925060a0880151915060c0880151905092959891949750929550565b6000602082840312156103a257600080fd5b6103ab82610303565b9392505050565b6000825160005b818110156103d357602081860181015185830152016103b9565b506000920191825250919050565b61030a806103f06000396000f3fe608060405234801561001057600080fd5b506004361061004c5760003560e01c806326782247146100c95780635c60da1b146100f8578063bb913f411461010b578063f851a4401461011e575b6002546040516000916001600160a01b03169061006c9083903690610294565b600060405180830381855af49150503d80600081146100a7576040519150601f19603f3d011682016040523d82523d6000602084013e6100ac565b606091505b505090506040513d6000823e8180156100c3573d82f35b3d82fd5b005b6001546100dc906001600160a01b031681565b6040516001600160a01b03909116815260200160405180910390f35b6002546100dc906001600160a01b031681565b6100c76101193660046102a4565b610131565b6000546100dc906001600160a01b031681565b6000546001600160a01b031633146101a95760405162461bcd60e51b815260206004820152603060248201527f526f6d756c757344656c656761746f723a3a5f736574496d706c656d656e746160448201526f74696f6e3a2061646d696e206f6e6c7960801b60648201526084015b60405180910390fd5b6001600160a01b0381166102335760405162461bcd60e51b8152602060048201526044602482018190527f526f6d756c757344656c656761746f723a3a5f736574496d706c656d656e7461908201527f74696f6e3a20696e76616c696420696d706c656d656e746174696f6e206164646064820152637265737360e01b608482015260a4016101a0565b600280546001600160a01b038381166001600160a01b031983168117909355604080519190921680825260208201939093527fd604de94d45953f9138079ec1b82d533cb2160c906d1076d1f7ed54befbca97a910160405180910390a15050565b8183823760009101908152919050565b6000602082840312156102b657600080fd5b81356001600160a01b03811681146102cd57600080fd5b939250505056fea26469706673582212205a59db7baf4941a84615b58eb92f9ced483e536e382e728341f44cb3f3c70af464736f6c63430008170033526f6d756c757344656c656761746f723a3a5f736574496d706c656d656e7461",
  "devdoc": {
    "events": {
      "VoteCast(address,uint256,uint8,uint256,string)": {
        "params": {
          "proposalId": "The proposal id which was voted on",
          "reason": "The reason given for the vote by the voter",
          "support": "Support value for the vote. 0=against, 1=for, 2=abstain",
          "voter": "The address which casted a vote",
          "votes": "Number of votes which were cast by the voter"
        }
      }
    },
    "kind": "dev",
    "methods": {
      "_setImplementation(address)": {
        "params": {
          "implementation_": "The address of the new implementation for delegation"
        }
      }
    },
    "version": 1
  },
  "userdoc": {
    "events": {
      "NewAdmin(address,address)": {
        "notice": "Emitted when pendingAdmin is accepted, which means admin is updated"
      },
      "NewImplementation(address,address)": {
        "notice": "Emitted when implementation is changed"
      },
      "NewPendingAdmin(address,address)": {
        "notice": "Emitted when pendingAdmin is changed"
      },
      "ProposalCanceled(uint256)": {
        "notice": "An event emitted when a proposal has been canceled"
      },
      "ProposalCreated(uint256,address,address[],uint256[],string[],bytes[],uint256,uint256,string)": {
        "notice": "An event emitted when a new proposal is created"
      },
      "ProposalExecuted(uint256)": {
        "notice": "An event emitted when a proposal has been executed in the Timelock"
      },
      "ProposalQueued(uint256,uint256)": {
        "notice": "An event emitted when a proposal has been queued in the Timelock"
      },
      "ProposalThresholdSet(uint256,uint256)": {
        "notice": "Emitted when proposal threshold is set"
      },
      "VoteCast(address,uint256,uint8,uint256,string)": {
        "notice": "An event emitted when a vote has been cast on a proposal"
      },
      "VotingDelaySet(uint256,uint256)": {
        "notice": "An event emitted when the voting delay is set"
      },
      "VotingPeriodSet(uint256,uint256)": {
        "notice": "An event emitted when the voting period is set"
      }
    },
    "kind": "user",
    "methods": {
      "_setImplementation(address)": {
        "notice": "Called by the admin to update the implementation of the delegator"
      },
      "admin()": {
        "notice": "Administrator for this contract"
      },
      "implementation()": {
        "notice": "Active brains of Governor"
      },
      "pendingAdmin()": {
        "notice": "Pending administrator for this contract"
      }
    },
    "version": 1
  },
  "storageLayout": {
    "storage": [
      {
        "astId": 4729,
        "contract": "contracts/governance/RomulusDelegator.sol:RomulusDelegator",
        "label": "admin",
        "offset": 0,
        "slot": "0",
        "type": "t_address"
      },
      {
        "astId": 4732,
        "contract": "contracts/governance/RomulusDelegator.sol:RomulusDelegator",
        "label": "pendingAdmin",
        "offset": 0,
        "slot": "1",
        "type": "t_address"
      },
      {
        "astId": 4735,
        "contract": "contracts/governance/RomulusDelegator.sol:RomulusDelegator",
        "label": "implementation",
        "offset": 0,
        "slot": "2",
        "type": "t_address"
      }
    ],
    "types": {
      "t_address": {
        "encoding": "inplace",
        "label": "address",
        "numberOfBytes": "20"
      }
    }
  }
}